{
  "_format": "hh-sol-artifact-1",
  "contractName": "PaymentProcessor",
  "sourceName": "blockchain/PaymentProcessor.sol",
  "abi": [
    {
      "inputs": [],
      "stateMutability": "nonpayable",
      "type": "constructor"
    },
    {
      "anonymous": false,
      "inputs": [
        {
          "indexed": true,
          "internalType": "uint256",
          "name": "paymentId",
          "type": "uint256"
        },
        {
          "indexed": true,
          "internalType": "address",
          "name": "from",
          "type": "address"
        },
        {
          "indexed": true,
          "internalType": "address",
          "name": "to",
          "type": "address"
        },
        {
          "indexed": false,
          "internalType": "uint256",
          "name": "amount",
          "type": "uint256"
        },
        {
          "indexed": false,
          "internalType": "uint256",
          "name": "fee",
          "type": "uint256"
        }
      ],
      "name": "PaymentReceived",
      "type": "event"
    },
    {
      "anonymous": false,
      "inputs": [
        {
          "indexed": true,
          "internalType": "uint256",
          "name": "paymentId",
          "type": "uint256"
        },
        {
          "indexed": true,
          "internalType": "address",
          "name": "recipient",
          "type": "address"
        },
        {
          "indexed": false,
          "internalType": "uint256",
          "name": "amount",
          "type": "uint256"
        }
      ],
      "name": "PaymentSettled",
      "type": "event"
    },
    {
      "anonymous": false,
      "inputs": [
        {
          "indexed": true,
          "internalType": "address",
          "name": "user",
          "type": "address"
        },
        {
          "indexed": false,
          "internalType": "uint256",
          "name": "amount",
          "type": "uint256"
        },
        {
          "indexed": false,
          "internalType": "uint256",
          "name": "timestamp",
          "type": "uint256"
        }
      ],
      "name": "Withdrawal",
      "type": "event"
    },
    {
      "inputs": [
        {
          "internalType": "address",
          "name": "",
          "type": "address"
        }
      ],
      "name": "balances",
      "outputs": [
        {
          "internalType": "uint256",
          "name": "",
          "type": "uint256"
        }
      ],
      "stateMutability": "view",
      "type": "function"
    },
    {
      "inputs": [
        {
          "internalType": "address[]",
          "name": "recipients",
          "type": "address[]"
        },
        {
          "internalType": "uint256[]",
          "name": "amounts",
          "type": "uint256[]"
        },
        {
          "internalType": "string",
          "name": "description",
          "type": "string"
        }
      ],
      "name": "batchPayment",
      "outputs": [],
      "stateMutability": "payable",
      "type": "function"
    },
    {
      "inputs": [
        {
          "internalType": "uint256",
          "name": "amount",
          "type": "uint256"
        }
      ],
      "name": "calculateFee",
      "outputs": [
        {
          "internalType": "uint256",
          "name": "",
          "type": "uint256"
        }
      ],
      "stateMutability": "view",
      "type": "function"
    },
    {
      "inputs": [],
      "name": "emergencyWithdraw",
      "outputs": [],
      "stateMutability": "nonpayable",
      "type": "function"
    },
    {
      "inputs": [],
      "name": "feeCollector",
      "outputs": [
        {
          "internalType": "address",
          "name": "",
          "type": "address"
        }
      ],
      "stateMutability": "view",
      "type": "function"
    },
    {
      "inputs": [],
      "name": "feePercentage",
      "outputs": [
        {
          "internalType": "uint256",
          "name": "",
          "type": "uint256"
        }
      ],
      "stateMutability": "view",
      "type": "function"
    },
    {
      "inputs": [
        {
          "internalType": "address",
          "name": "user",
          "type": "address"
        }
      ],
      "name": "getBalance",
      "outputs": [
        {
          "internalType": "uint256",
          "name": "",
          "type": "uint256"
        }
      ],
      "stateMutability": "view",
      "type": "function"
    },
    {
      "inputs": [
        {
          "internalType": "uint256",
          "name": "paymentId",
          "type": "uint256"
        }
      ],
      "name": "getPaymentRecord",
      "outputs": [
        {
          "components": [
            {
              "internalType": "address",
              "name": "from",
              "type": "address"
            },
            {
              "internalType": "address",
              "name": "to",
              "type": "address"
            },
            {
              "internalType": "uint256",
              "name": "amount",
              "type": "uint256"
            },
            {
              "internalType": "string",
              "name": "description",
              "type": "string"
            },
            {
              "internalType": "uint256",
              "name": "timestamp",
              "type": "uint256"
            },
            {
              "internalType": "bool",
              "name": "settled",
              "type": "bool"
            }
          ],
          "internalType": "struct PaymentProcessor.PaymentRecord",
          "name": "",
          "type": "tuple"
        }
      ],
      "stateMutability": "view",
      "type": "function"
    },
    {
      "inputs": [],
      "name": "paymentCounter",
      "outputs": [
        {
          "internalType": "uint256",
          "name": "",
          "type": "uint256"
        }
      ],
      "stateMutability": "view",
      "type": "function"
    },
    {
      "inputs": [
        {
          "internalType": "uint256",
          "name": "",
          "type": "uint256"
        }
      ],
      "name": "paymentRecords",
      "outputs": [
        {
          "internalType": "address",
          "name": "from",
          "type": "address"
        },
        {
          "internalType": "address",
          "name": "to",
          "type": "address"
        },
        {
          "internalType": "uint256",
          "name": "amount",
          "type": "uint256"
        },
        {
          "internalType": "string",
          "name": "description",
          "type": "string"
        },
        {
          "internalType": "uint256",
          "name": "timestamp",
          "type": "uint256"
        },
        {
          "internalType": "bool",
          "name": "settled",
          "type": "bool"
        }
      ],
      "stateMutability": "view",
      "type": "function"
    },
    {
      "inputs": [
        {
          "internalType": "address",
          "name": "recipient",
          "type": "address"
        },
        {
          "internalType": "uint256",
          "name": "amount",
          "type": "uint256"
        },
        {
          "internalType": "string",
          "name": "description",
          "type": "string"
        }
      ],
      "name": "sendPayment",
      "outputs": [
        {
          "internalType": "uint256",
          "name": "",
          "type": "uint256"
        }
      ],
      "stateMutability": "payable",
      "type": "function"
    },
    {
      "inputs": [
        {
          "internalType": "uint256",
          "name": "newFee",
          "type": "uint256"
        }
      ],
      "name": "setFeePercentage",
      "outputs": [],
      "stateMutability": "nonpayable",
      "type": "function"
    },
    {
      "inputs": [
        {
          "internalType": "uint256",
          "name": "paymentId",
          "type": "uint256"
        }
      ],
      "name": "settlePayment",
      "outputs": [],
      "stateMutability": "nonpayable",
      "type": "function"
    },
    {
      "inputs": [
        {
          "internalType": "uint256",
          "name": "amount",
          "type": "uint256"
        }
      ],
      "name": "withdraw",
      "outputs": [],
      "stateMutability": "nonpayable",
      "type": "function"
    },
    {
      "stateMutability": "payable",
      "type": "receive"
    }
  ],
  "bytecode": "0x60806040526064600055600060045534801561001a57600080fd5b5033600160006101000a81548173ffffffffffffffffffffffffffffffffffffffff021916908373ffffffffffffffffffffffffffffffffffffffff1602179055506124168061006b6000396000f3fe6080604052600436106100e15760003560e01c80639f20c4f71161007f578063c1d446be11610059578063c1d446be146102c6578063c415b95c14610303578063db2e21bc1461032e578063f8b2cb4f14610345576100e8565b80639f20c4f714610249578063a001ecdd14610272578063ae06c1b71461029d576100e8565b806344d6dcae116100bb57806344d6dcae1461016f5780635691fe631461019f57806376840b60146101e157806399a5d7471461020c576100e8565b80630b7e4c94146100ed57806327e235e3146101095780632e1a7d4d14610146576100e8565b366100e857005b600080fd5b610107600480360381019061010291906115eb565b610382565b005b34801561011557600080fd5b50610130600480360381019061012b9190611692565b6104b8565b60405161013d91906116ce565b60405180910390f35b34801561015257600080fd5b5061016d600480360381019061016891906116e9565b6104d0565b005b61018960048036038101906101849190611716565b6106a8565b60405161019691906116ce565b60405180910390f35b3480156101ab57600080fd5b506101c660048036038101906101c191906116e9565b610a63565b6040516101d89695949392919061182e565b60405180910390f35b3480156101ed57600080fd5b506101f6610b74565b60405161020391906116ce565b60405180910390f35b34801561021857600080fd5b50610233600480360381019061022e91906116e9565b610b7a565b60405161024091906116ce565b60405180910390f35b34801561025557600080fd5b50610270600480360381019061026b91906116e9565b610b9e565b005b34801561027e57600080fd5b50610287610d75565b60405161029491906116ce565b60405180910390f35b3480156102a957600080fd5b506102c460048036038101906102bf91906116e9565b610d7b565b005b3480156102d257600080fd5b506102ed60048036038101906102e891906116e9565b610e5a565b6040516102fa9190611996565b60405180910390f35b34801561030f57600080fd5b50610318611038565b60405161032591906119b8565b60405180910390f35b34801561033a57600080fd5b5061034361105e565b005b34801561035157600080fd5b5061036c60048036038101906103679190611692565b6111c5565b60405161037991906116ce565b60405180910390f35b81518351146103c6576040517f08c379a00000000000000000000000000000000000000000000000000000000081526004016103bd90611a1f565b60405180910390fd5b6000805b835181101561040e578381815181106103e6576103e5611a3f565b5b6020026020010151826103f99190611a9d565b9150808061040690611ad1565b9150506103ca565b5080341015610452576040517f08c379a000000000000000000000000000000000000000000000000000000000815260040161044990611b65565b60405180910390fd5b60005b84518110156104b15761049d85828151811061047457610473611a3f565b5b602002602001015185838151811061048f5761048e611a3f565b5b6020026020010151856106a8565b5080806104a990611ad1565b915050610455565b5050505050565b60026020528060005260406000206000915090505481565b80600260003373ffffffffffffffffffffffffffffffffffffffff1673ffffffffffffffffffffffffffffffffffffffff168152602001908152602001600020541015610552576040517f08c379a000000000000000000000000000000000000000000000000000000000815260040161054990611bd1565b60405180910390fd5b80600260003373ffffffffffffffffffffffffffffffffffffffff1673ffffffffffffffffffffffffffffffffffffffff16815260200190815260200160002060008282546105a19190611bf1565b9250508190555060003373ffffffffffffffffffffffffffffffffffffffff16826040516105ce90611c56565b60006040518083038185875af1925050503d806000811461060b576040519150601f19603f3d011682016040523d82523d6000602084013e610610565b606091505b5050905080610654576040517f08c379a000000000000000000000000000000000000000000000000000000000815260040161064b90611cb7565b60405180910390fd5b3373ffffffffffffffffffffffffffffffffffffffff167fdf273cb619d95419a9cd0ec88123a0538c85064229baa6363788f743fff90deb834260405161069c929190611cd7565b60405180910390a25050565b60008073ffffffffffffffffffffffffffffffffffffffff168473ffffffffffffffffffffffffffffffffffffffff1603610718576040517f08c379a000000000000000000000000000000000000000000000000000000000815260040161070f90611d4c565b60405180910390fd5b8234101561075b576040517f08c379a000000000000000000000000000000000000000000000000000000000815260040161075290611db8565b60405180910390fd5b6000831161079e576040517f08c379a000000000000000000000000000000000000000000000000000000000815260040161079590611e24565b60405180910390fd5b60006107a984610b7a565b9050600081856107b99190611bf1565b90506000600460008154809291906107d090611ad1565b9190505590506040518060c001604052803373ffffffffffffffffffffffffffffffffffffffff1681526020018873ffffffffffffffffffffffffffffffffffffffff168152602001838152602001868152602001428152602001600015158152506003600083815260200190815260200160002060008201518160000160006101000a81548173ffffffffffffffffffffffffffffffffffffffff021916908373ffffffffffffffffffffffffffffffffffffffff16021790555060208201518160010160006101000a81548173ffffffffffffffffffffffffffffffffffffffff021916908373ffffffffffffffffffffffffffffffffffffffff1602179055506040820151816002015560608201518160030190816108f29190612050565b506080820151816004015560a08201518160050160006101000a81548160ff02191690831515021790555090505081600260008973ffffffffffffffffffffffffffffffffffffffff1673ffffffffffffffffffffffffffffffffffffffff168152602001908152602001600020600082825461096f9190611a9d565b925050819055508260026000600160009054906101000a900473ffffffffffffffffffffffffffffffffffffffff1673ffffffffffffffffffffffffffffffffffffffff1673ffffffffffffffffffffffffffffffffffffffff16815260200190815260200160002060008282546109e79190611a9d565b925050819055508673ffffffffffffffffffffffffffffffffffffffff163373ffffffffffffffffffffffffffffffffffffffff16827f97a560c1f75713f086cb846ee29d9284d3ce238c5913d3fb5d65dc4d165122838587604051610a4e929190611cd7565b60405180910390a48093505050509392505050565b60036020528060005260406000206000915090508060000160009054906101000a900473ffffffffffffffffffffffffffffffffffffffff16908060010160009054906101000a900473ffffffffffffffffffffffffffffffffffffffff1690806002015490806003018054610ad890611e73565b80601f0160208091040260200160405190810160405280929190818152602001828054610b0490611e73565b8015610b515780601f10610b2657610100808354040283529160200191610b51565b820191906000526020600020905b815481529060010190602001808311610b3457829003601f168201915b5050505050908060040154908060050160009054906101000a900460ff16905086565b60045481565b600061271060005483610b8d9190612122565b610b979190612193565b9050919050565b6004548110610be2576040517f08c379a0000000000000000000000000000000000000000000000000000000008152600401610bd990612210565b60405180910390fd5b60006003600083815260200190815260200160002090503373ffffffffffffffffffffffffffffffffffffffff168160010160009054906101000a900473ffffffffffffffffffffffffffffffffffffffff1673ffffffffffffffffffffffffffffffffffffffff1614610c8b576040517f08c379a0000000000000000000000000000000000000000000000000000000008152600401610c829061227c565b60405180910390fd5b8060050160009054906101000a900460ff1615610cdd576040517f08c379a0000000000000000000000000000000000000000000000000000000008152600401610cd4906122e8565b60405180910390fd5b60018160050160006101000a81548160ff0219169083151502179055508060010160009054906101000a900473ffffffffffffffffffffffffffffffffffffffff1673ffffffffffffffffffffffffffffffffffffffff16827ffc8b977f1c80a8e9ce98d4ee92ece16b551343d056ff17b6ab738516c39fc4408360020154604051610d6991906116ce565b60405180910390a35050565b60005481565b600160009054906101000a900473ffffffffffffffffffffffffffffffffffffffff1673ffffffffffffffffffffffffffffffffffffffff163373ffffffffffffffffffffffffffffffffffffffff1614610e0b576040517f08c379a0000000000000000000000000000000000000000000000000000000008152600401610e0290612354565b60405180910390fd5b6101f4811115610e50576040517f08c379a0000000000000000000000000000000000000000000000000000000008152600401610e47906123c0565b60405180910390fd5b8060008190555050565b610e6261120e565b6004548210610ea6576040517f08c379a0000000000000000000000000000000000000000000000000000000008152600401610e9d90612210565b60405180910390fd5b600360008381526020019081526020016000206040518060c00160405290816000820160009054906101000a900473ffffffffffffffffffffffffffffffffffffffff1673ffffffffffffffffffffffffffffffffffffffff1673ffffffffffffffffffffffffffffffffffffffff1681526020016001820160009054906101000a900473ffffffffffffffffffffffffffffffffffffffff1673ffffffffffffffffffffffffffffffffffffffff1673ffffffffffffffffffffffffffffffffffffffff16815260200160028201548152602001600382018054610f8a90611e73565b80601f0160208091040260200160405190810160405280929190818152602001828054610fb690611e73565b80156110035780601f10610fd857610100808354040283529160200191611003565b820191906000526020600020905b815481529060010190602001808311610fe657829003601f168201915b50505050508152602001600482015481526020016005820160009054906101000a900460ff1615151515815250509050919050565b600160009054906101000a900473ffffffffffffffffffffffffffffffffffffffff1681565b600160009054906101000a900473ffffffffffffffffffffffffffffffffffffffff1673ffffffffffffffffffffffffffffffffffffffff163373ffffffffffffffffffffffffffffffffffffffff16146110ee576040517f08c379a00000000000000000000000000000000000000000000000000000000081526004016110e590612354565b60405180910390fd5b60004790506000600160009054906101000a900473ffffffffffffffffffffffffffffffffffffffff1673ffffffffffffffffffffffffffffffffffffffff168260405161113b90611c56565b60006040518083038185875af1925050503d8060008114611178576040519150601f19603f3d011682016040523d82523d6000602084013e61117d565b606091505b50509050806111c1576040517f08c379a00000000000000000000000000000000000000000000000000000000081526004016111b890611cb7565b60405180910390fd5b5050565b6000600260008373ffffffffffffffffffffffffffffffffffffffff1673ffffffffffffffffffffffffffffffffffffffff168152602001908152602001600020549050919050565b6040518060c00160405280600073ffffffffffffffffffffffffffffffffffffffff168152602001600073ffffffffffffffffffffffffffffffffffffffff1681526020016000815260200160608152602001600081526020016000151581525090565b6000604051905090565b600080fd5b600080fd5b600080fd5b6000601f19601f8301169050919050565b7f4e487b7100000000000000000000000000000000000000000000000000000000600052604160045260246000fd5b6112d48261128b565b810181811067ffffffffffffffff821117156112f3576112f261129c565b5b80604052505050565b6000611306611272565b905061131282826112cb565b919050565b600067ffffffffffffffff8211156113325761133161129c565b5b602082029050602081019050919050565b600080fd5b600073ffffffffffffffffffffffffffffffffffffffff82169050919050565b600061137382611348565b9050919050565b61138381611368565b811461138e57600080fd5b50565b6000813590506113a08161137a565b92915050565b60006113b96113b484611317565b6112fc565b905080838252602082019050602084028301858111156113dc576113db611343565b5b835b8181101561140557806113f18882611391565b8452602084019350506020810190506113de565b5050509392505050565b600082601f83011261142457611423611286565b5b81356114348482602086016113a6565b91505092915050565b600067ffffffffffffffff8211156114585761145761129c565b5b602082029050602081019050919050565b6000819050919050565b61147c81611469565b811461148757600080fd5b50565b60008135905061149981611473565b92915050565b60006114b26114ad8461143d565b6112fc565b905080838252602082019050602084028301858111156114d5576114d4611343565b5b835b818110156114fe57806114ea888261148a565b8452602084019350506020810190506114d7565b5050509392505050565b600082601f83011261151d5761151c611286565b5b813561152d84826020860161149f565b91505092915050565b600080fd5b600067ffffffffffffffff8211156115565761155561129c565b5b61155f8261128b565b9050602081019050919050565b82818337600083830152505050565b600061158e6115898461153b565b6112fc565b9050828152602081018484840111156115aa576115a9611536565b5b6115b584828561156c565b509392505050565b600082601f8301126115d2576115d1611286565b5b81356115e284826020860161157b565b91505092915050565b6000806000606084860312156116045761160361127c565b5b600084013567ffffffffffffffff81111561162257611621611281565b5b61162e8682870161140f565b935050602084013567ffffffffffffffff81111561164f5761164e611281565b5b61165b86828701611508565b925050604084013567ffffffffffffffff81111561167c5761167b611281565b5b611688868287016115bd565b9150509250925092565b6000602082840312156116a8576116a761127c565b5b60006116b684828501611391565b91505092915050565b6116c881611469565b82525050565b60006020820190506116e360008301846116bf565b92915050565b6000602082840312156116ff576116fe61127c565b5b600061170d8482850161148a565b91505092915050565b60008060006060848603121561172f5761172e61127c565b5b600061173d86828701611391565b935050602061174e8682870161148a565b925050604084013567ffffffffffffffff81111561176f5761176e611281565b5b61177b868287016115bd565b9150509250925092565b61178e81611368565b82525050565b600081519050919050565b600082825260208201905092915050565b60005b838110156117ce5780820151818401526020810190506117b3565b60008484015250505050565b60006117e582611794565b6117ef818561179f565b93506117ff8185602086016117b0565b6118088161128b565b840191505092915050565b60008115159050919050565b61182881611813565b82525050565b600060c0820190506118436000830189611785565b6118506020830188611785565b61185d60408301876116bf565b818103606083015261186f81866117da565b905061187e60808301856116bf565b61188b60a083018461181f565b979650505050505050565b61189f81611368565b82525050565b6118ae81611469565b82525050565b600082825260208201905092915050565b60006118d082611794565b6118da81856118b4565b93506118ea8185602086016117b0565b6118f38161128b565b840191505092915050565b61190781611813565b82525050565b600060c0830160008301516119256000860182611896565b5060208301516119386020860182611896565b50604083015161194b60408601826118a5565b506060830151848203606086015261196382826118c5565b915050608083015161197860808601826118a5565b5060a083015161198b60a08601826118fe565b508091505092915050565b600060208201905081810360008301526119b0818461190d565b905092915050565b60006020820190506119cd6000830184611785565b92915050565b7f4172726179206c656e677468206d69736d617463680000000000000000000000600082015250565b6000611a0960158361179f565b9150611a14826119d3565b602082019050919050565b60006020820190508181036000830152611a38816119fc565b9050919050565b7f4e487b7100000000000000000000000000000000000000000000000000000000600052603260045260246000fd5b7f4e487b7100000000000000000000000000000000000000000000000000000000600052601160045260246000fd5b6000611aa882611469565b9150611ab383611469565b9250828201905080821115611acb57611aca611a6e565b5b92915050565b6000611adc82611469565b91507fffffffffffffffffffffffffffffffffffffffffffffffffffffffffffffffff8203611b0e57611b0d611a6e565b5b600182019050919050565b7f496e73756666696369656e742066756e647320666f7220626174636800000000600082015250565b6000611b4f601c8361179f565b9150611b5a82611b19565b602082019050919050565b60006020820190508181036000830152611b7e81611b42565b9050919050565b7f496e73756666696369656e742062616c616e6365000000000000000000000000600082015250565b6000611bbb60148361179f565b9150611bc682611b85565b602082019050919050565b60006020820190508181036000830152611bea81611bae565b9050919050565b6000611bfc82611469565b9150611c0783611469565b9250828203905081811115611c1f57611c1e611a6e565b5b92915050565b600081905092915050565b50565b6000611c40600083611c25565b9150611c4b82611c30565b600082019050919050565b6000611c6182611c33565b9150819050919050565b7f5769746864726177616c206661696c6564000000000000000000000000000000600082015250565b6000611ca160118361179f565b9150611cac82611c6b565b602082019050919050565b60006020820190508181036000830152611cd081611c94565b9050919050565b6000604082019050611cec60008301856116bf565b611cf960208301846116bf565b9392505050565b7f496e76616c696420726563697069656e74000000000000000000000000000000600082015250565b6000611d3660118361179f565b9150611d4182611d00565b602082019050919050565b60006020820190508181036000830152611d6581611d29565b9050919050565b7f496e73756666696369656e742066756e64730000000000000000000000000000600082015250565b6000611da260128361179f565b9150611dad82611d6c565b602082019050919050565b60006020820190508181036000830152611dd181611d95565b9050919050565b7f416d6f756e74206d757374206265203e20300000000000000000000000000000600082015250565b6000611e0e60128361179f565b9150611e1982611dd8565b602082019050919050565b60006020820190508181036000830152611e3d81611e01565b9050919050565b7f4e487b7100000000000000000000000000000000000000000000000000000000600052602260045260246000fd5b60006002820490506001821680611e8b57607f821691505b602082108103611e9e57611e9d611e44565b5b50919050565b60008190508160005260206000209050919050565b60006020601f8301049050919050565b600082821b905092915050565b600060088302611f067fffffffffffffffffffffffffffffffffffffffffffffffffffffffffffffffff82611ec9565b611f108683611ec9565b95508019841693508086168417925050509392505050565b6000819050919050565b6000611f4d611f48611f4384611469565b611f28565b611469565b9050919050565b6000819050919050565b611f6783611f32565b611f7b611f7382611f54565b848454611ed6565b825550505050565b600090565b611f90611f83565b611f9b818484611f5e565b505050565b5b81811015611fbf57611fb4600082611f88565b600181019050611fa1565b5050565b601f82111561200457611fd581611ea4565b611fde84611eb9565b81016020851015611fed578190505b612001611ff985611eb9565b830182611fa0565b50505b505050565b600082821c905092915050565b600061202760001984600802612009565b1980831691505092915050565b60006120408383612016565b9150826002028217905092915050565b61205982611794565b67ffffffffffffffff8111156120725761207161129c565b5b61207c8254611e73565b612087828285611fc3565b600060209050601f8311600181146120ba57600084156120a8578287015190505b6120b28582612034565b86555061211a565b601f1984166120c886611ea4565b60005b828110156120f0578489015182556001820191506020850194506020810190506120cb565b8683101561210d5784890151612109601f891682612016565b8355505b6001600288020188555050505b505050505050565b600061212d82611469565b915061213883611469565b925082820261214681611469565b9150828204841483151761215d5761215c611a6e565b5b5092915050565b7f4e487b7100000000000000000000000000000000000000000000000000000000600052601260045260246000fd5b600061219e82611469565b91506121a983611469565b9250826121b9576121b8612164565b5b828204905092915050565b7f5061796d656e74206e6f7420666f756e64000000000000000000000000000000600082015250565b60006121fa60118361179f565b9150612205826121c4565b602082019050919050565b60006020820190508181036000830152612229816121ed565b9050919050565b7f4f6e6c7920726563697069656e742063616e20736574746c6500000000000000600082015250565b600061226660198361179f565b915061227182612230565b602082019050919050565b6000602082019050818103600083015261229581612259565b9050919050565b7f416c726561647920736574746c65640000000000000000000000000000000000600082015250565b60006122d2600f8361179f565b91506122dd8261229c565b602082019050919050565b60006020820190508181036000830152612301816122c5565b9050919050565b7f4f6e6c792066656520636f6c6c6563746f720000000000000000000000000000600082015250565b600061233e60128361179f565b915061234982612308565b602082019050919050565b6000602082019050818103600083015261236d81612331565b9050919050565b7f46656520746f6f206869676820286d6178203525290000000000000000000000600082015250565b60006123aa60158361179f565b91506123b582612374565b602082019050919050565b600060208201905081810360008301526123d98161239d565b905091905056fea264697066735822122073fc9fce505352a6c035248c42de10e94a80bd96492b94c089346518f5afe9b464736f6c63430008140033",
  "linkReferences": {},
  "deployedLinkReferences": {}
}