{
  "_format": "hh-sol-artifact-1",
  "contractName": "StorageContract",
  "sourceName": "blockchain/StorageContract.sol",
  "abi": [
    {
      "anonymous": false,
      "inputs": [
        {
          "indexed": true,
          "internalType": "uint256",
          "name": "contractId",
          "type": "uint256"
        },
        {
          "indexed": false,
          "internalType": "bool",
          "name": "completed",
          "type": "bool"
        }
      ],
      "name": "ContractClosed",
      "type": "event"
    },
    {
      "anonymous": false,
      "inputs": [
        {
          "indexed": true,
          "internalType": "uint256",
          "name": "contractId",
          "type": "uint256"
        },
        {
          "indexed": true,
          "internalType": "address",
          "name": "renter",
          "type": "address"
        },
        {
          "indexed": true,
          "internalType": "address",
          "name": "provider",
          "type": "address"
        },
        {
          "indexed": false,
          "internalType": "uint256",
          "name": "allocatedGB",
          "type": "uint256"
        },
        {
          "indexed": false,
          "internalType": "uint256",
          "name": "pricePerGBPerMonth",
          "type": "uint256"
        }
      ],
      "name": "ContractCreated",
      "type": "event"
    },
    {
      "anonymous": false,
      "inputs": [
        {
          "indexed": true,
          "internalType": "uint256",
          "name": "contractId",
          "type": "uint256"
        },
        {
          "indexed": true,
          "internalType": "address",
          "name": "disputedBy",
          "type": "address"
        },
        {
          "indexed": false,
          "internalType": "string",
          "name": "reason",
          "type": "string"
        }
      ],
      "name": "ContractDisputed",
      "type": "event"
    },
    {
      "anonymous": false,
      "inputs": [
        {
          "indexed": true,
          "internalType": "uint256",
          "name": "contractId",
          "type": "uint256"
        },
        {
          "indexed": true,
          "internalType": "address",
          "name": "from",
          "type": "address"
        },
        {
          "indexed": true,
          "internalType": "address",
          "name": "to",
          "type": "address"
        },
        {
          "indexed": false,
          "internalType": "uint256",
          "name": "amount",
          "type": "uint256"
        }
      ],
      "name": "PaymentProcessed",
      "type": "event"
    },
    {
      "anonymous": false,
      "inputs": [
        {
          "indexed": true,
          "internalType": "uint256",
          "name": "contractId",
          "type": "uint256"
        },
        {
          "indexed": false,
          "internalType": "uint256",
          "name": "newUsedGB",
          "type": "uint256"
        }
      ],
      "name": "StorageUpdated",
      "type": "event"
    },
    {
      "inputs": [
        {
          "internalType": "uint256",
          "name": "contractId",
          "type": "uint256"
        }
      ],
      "name": "calculateMonthlyPayment",
      "outputs": [
        {
          "internalType": "uint256",
          "name": "",
          "type": "uint256"
        }
      ],
      "stateMutability": "view",
      "type": "function"
    },
    {
      "inputs": [
        {
          "internalType": "uint256",
          "name": "contractId",
          "type": "uint256"
        }
      ],
      "name": "closeContract",
      "outputs": [],
      "stateMutability": "nonpayable",
      "type": "function"
    },
    {
      "inputs": [],
      "name": "contractCounter",
      "outputs": [
        {
          "internalType": "uint256",
          "name": "",
          "type": "uint256"
        }
      ],
      "stateMutability": "view",
      "type": "function"
    },
    {
      "inputs": [
        {
          "internalType": "uint256",
          "name": "",
          "type": "uint256"
        },
        {
          "internalType": "uint256",
          "name": "",
          "type": "uint256"
        }
      ],
      "name": "contractPayments",
      "outputs": [
        {
          "internalType": "uint256",
          "name": "contractId",
          "type": "uint256"
        },
        {
          "internalType": "address",
          "name": "from",
          "type": "address"
        },
        {
          "internalType": "address",
          "name": "to",
          "type": "address"
        },
        {
          "internalType": "uint256",
          "name": "amount",
          "type": "uint256"
        },
        {
          "internalType": "uint256",
          "name": "timestamp",
          "type": "uint256"
        },
        {
          "internalType": "bool",
          "name": "processed",
          "type": "bool"
        }
      ],
      "stateMutability": "view",
      "type": "function"
    },
    {
      "inputs": [
        {
          "internalType": "uint256",
          "name": "",
          "type": "uint256"
        }
      ],
      "name": "contracts",
      "outputs": [
        {
          "internalType": "address",
          "name": "renter",
          "type": "address"
        },
        {
          "internalType": "address",
          "name": "provider",
          "type": "address"
        },
        {
          "internalType": "uint256",
          "name": "allocatedGB",
          "type": "uint256"
        },
        {
          "internalType": "uint256",
          "name": "usedGB",
          "type": "uint256"
        },
        {
          "internalType": "uint256",
          "name": "pricePerGBPerMonth",
          "type": "uint256"
        },
        {
          "internalType": "uint256",
          "name": "startTime",
          "type": "uint256"
        },
        {
          "internalType": "uint256",
          "name": "endTime",
          "type": "uint256"
        },
        {
          "internalType": "bool",
          "name": "active",
          "type": "bool"
        },
        {
          "internalType": "bool",
          "name": "disputed",
          "type": "bool"
        }
      ],
      "stateMutability": "view",
      "type": "function"
    },
    {
      "inputs": [
        {
          "internalType": "address",
          "name": "provider",
          "type": "address"
        },
        {
          "internalType": "uint256",
          "name": "allocatedGB",
          "type": "uint256"
        },
        {
          "internalType": "uint256",
          "name": "pricePerGBPerMonth",
          "type": "uint256"
        },
        {
          "internalType": "uint256",
          "name": "durationMonths",
          "type": "uint256"
        }
      ],
      "name": "createContract",
      "outputs": [
        {
          "internalType": "uint256",
          "name": "",
          "type": "uint256"
        }
      ],
      "stateMutability": "nonpayable",
      "type": "function"
    },
    {
      "inputs": [
        {
          "internalType": "uint256",
          "name": "contractId",
          "type": "uint256"
        }
      ],
      "name": "depositEscrow",
      "outputs": [],
      "stateMutability": "payable",
      "type": "function"
    },
    {
      "inputs": [
        {
          "internalType": "uint256",
          "name": "contractId",
          "type": "uint256"
        },
        {
          "internalType": "string",
          "name": "reason",
          "type": "string"
        }
      ],
      "name": "disputeContract",
      "outputs": [],
      "stateMutability": "nonpayable",
      "type": "function"
    },
    {
      "inputs": [
        {
          "internalType": "address",
          "name": "",
          "type": "address"
        }
      ],
      "name": "escrowBalance",
      "outputs": [
        {
          "internalType": "uint256",
          "name": "",
          "type": "uint256"
        }
      ],
      "stateMutability": "view",
      "type": "function"
    },
    {
      "inputs": [
        {
          "internalType": "uint256",
          "name": "contractId",
          "type": "uint256"
        }
      ],
      "name": "getContract",
      "outputs": [
        {
          "components": [
            {
              "internalType": "address",
              "name": "renter",
              "type": "address"
            },
            {
              "internalType": "address",
              "name": "provider",
              "type": "address"
            },
            {
              "internalType": "uint256",
              "name": "allocatedGB",
              "type": "uint256"
            },
            {
              "internalType": "uint256",
              "name": "usedGB",
              "type": "uint256"
            },
            {
              "internalType": "uint256",
              "name": "pricePerGBPerMonth",
              "type": "uint256"
            },
            {
              "internalType": "uint256",
              "name": "startTime",
              "type": "uint256"
            },
            {
              "internalType": "uint256",
              "name": "endTime",
              "type": "uint256"
            },
            {
              "internalType": "bool",
              "name": "active",
              "type": "bool"
            },
            {
              "internalType": "bool",
              "name": "disputed",
              "type": "bool"
            }
          ],
          "internalType": "struct StorageContract.Storage",
          "name": "",
          "type": "tuple"
        }
      ],
      "stateMutability": "view",
      "type": "function"
    },
    {
      "inputs": [
        {
          "internalType": "uint256",
          "name": "contractId",
          "type": "uint256"
        }
      ],
      "name": "getPaymentHistory",
      "outputs": [
        {
          "components": [
            {
              "internalType": "uint256",
              "name": "contractId",
              "type": "uint256"
            },
            {
              "internalType": "address",
              "name": "from",
              "type": "address"
            },
            {
              "internalType": "address",
              "name": "to",
              "type": "address"
            },
            {
              "internalType": "uint256",
              "name": "amount",
              "type": "uint256"
            },
            {
              "internalType": "uint256",
              "name": "timestamp",
              "type": "uint256"
            },
            {
              "internalType": "bool",
              "name": "processed",
              "type": "bool"
            }
          ],
          "internalType": "struct StorageContract.Payment[]",
          "name": "",
          "type": "tuple[]"
        }
      ],
      "stateMutability": "view",
      "type": "function"
    },
    {
      "inputs": [
        {
          "internalType": "address",
          "name": "user",
          "type": "address"
        }
      ],
      "name": "getUserContracts",
      "outputs": [
        {
          "internalType": "uint256[]",
          "name": "",
          "type": "uint256[]"
        }
      ],
      "stateMutability": "view",
      "type": "function"
    },
    {
      "inputs": [
        {
          "internalType": "uint256",
          "name": "contractId",
          "type": "uint256"
        }
      ],
      "name": "markPaid",
      "outputs": [],
      "stateMutability": "nonpayable",
      "type": "function"
    },
    {
      "inputs": [
        {
          "internalType": "uint256",
          "name": "contractId",
          "type": "uint256"
        }
      ],
      "name": "processPayment",
      "outputs": [],
      "stateMutability": "nonpayable",
      "type": "function"
    },
    {
      "inputs": [
        {
          "internalType": "uint256",
          "name": "contractId",
          "type": "uint256"
        },
        {
          "internalType": "uint256",
          "name": "newUsedGB",
          "type": "uint256"
        }
      ],
      "name": "updateStorageUsage",
      "outputs": [],
      "stateMutability": "nonpayable",
      "type": "function"
    },
    {
      "inputs": [
        {
          "internalType": "address",
          "name": "",
          "type": "address"
        },
        {
          "internalType": "uint256",
          "name": "",
          "type": "uint256"
        }
      ],
      "name": "userContracts",
      "outputs": [
        {
          "internalType": "uint256",
          "name": "",
          "type": "uint256"
        }
      ],
      "stateMutability": "view",
      "type": "function"
    },
    {
      "inputs": [
        {
          "internalType": "uint256",
          "name": "amount",
          "type": "uint256"
        }
      ],
      "name": "withdrawEscrow",
      "outputs": [],
      "stateMutability": "nonpayable",
      "type": "function"
    }
  ],
  "bytecode": "0x6080604052600060045534801561001557600080fd5b50612faf806100256000396000f3fe6080604052600436106100fe5760003560e01c806355af6353116100955780639de359d7116100645780639de359d71461039e578063ad207e1e146103c7578063b789003d146103f0578063cb991efe1461042d578063d0ce736014610449576100fe565b806355af6353146102be5780636ebc8c86146102fb578063876512d0146103385780639a9ae8e314610361576100fe565b806347000d3f116100d157806347000d3f146101d1578063474da79a146102135780634e02503a146102585780635521e56914610295576100fe565b806301a2f75c14610103578063067bd3b41461014057806334c925f01461016b5780633a2f8485146101a8575b600080fd5b34801561010f57600080fd5b5061012a600480360381019061012591906120b5565b610472565b604051610137919061212b565b60405180910390f35b34801561014c57600080fd5b5061015561086b565b604051610162919061212b565b60405180910390f35b34801561017757600080fd5b50610192600480360381019061018d9190612146565b610871565b60405161019f9190612231565b60405180910390f35b3480156101b457600080fd5b506101cf60048036038101906101ca9190612253565b610908565b005b3480156101dd57600080fd5b506101f860048036038101906101f39190612280565b610da8565b60405161020a969594939291906122ea565b60405180910390f35b34801561021f57600080fd5b5061023a60048036038101906102359190612253565b610e4e565b60405161024f9998979695949392919061234b565b60405180910390f35b34801561026457600080fd5b5061027f600480360381019061027a9190612253565b610ef6565b60405161028c9190612520565b60405180910390f35b3480156102a157600080fd5b506102bc60048036038101906102b79190612688565b61104d565b005b3480156102ca57600080fd5b506102e560048036038101906102e09190612146565b611204565b6040516102f2919061212b565b60405180910390f35b34801561030757600080fd5b50610322600480360381019061031d9190612253565b61121c565b60405161032f919061279b565b60405180910390f35b34801561034457600080fd5b5061035f600480360381019061035a9190612253565b6113a1565b005b34801561036d57600080fd5b5061038860048036038101906103839190612253565b6114c3565b604051610395919061212b565b60405180910390f35b3480156103aa57600080fd5b506103c560048036038101906103c09190612280565b61167b565b005b3480156103d357600080fd5b506103ee60048036038101906103e99190612253565b6117f4565b005b3480156103fc57600080fd5b50610417600480360381019061041291906127b7565b611ba8565b604051610424919061212b565b60405180910390f35b61044760048036038101906104429190612253565b611bd9565b005b34801561045557600080fd5b50610470600480360381019061046b9190612253565b611df1565b005b60008073ffffffffffffffffffffffffffffffffffffffff168573ffffffffffffffffffffffffffffffffffffffff16036104e2576040517f08c379a00000000000000000000000000000000000000000000000000000000081526004016104d990612854565b60405180910390fd5b60008411610525576040517f08c379a000000000000000000000000000000000000000000000000000000000815260040161051c906128c0565b60405180910390fd5b60008211610568576040517f08c379a000000000000000000000000000000000000000000000000000000000815260040161055f9061292c565b60405180910390fd5b60006004600081548092919061057d9061297b565b919050559050600062278d008461059491906129c3565b4261059f9190612a05565b90506040518061012001604052803373ffffffffffffffffffffffffffffffffffffffff1681526020018873ffffffffffffffffffffffffffffffffffffffff168152602001878152602001600081526020018681526020014281526020018281526020016001151581526020016000151581525060008084815260200190815260200160002060008201518160000160006101000a81548173ffffffffffffffffffffffffffffffffffffffff021916908373ffffffffffffffffffffffffffffffffffffffff16021790555060208201518160010160006101000a81548173ffffffffffffffffffffffffffffffffffffffff021916908373ffffffffffffffffffffffffffffffffffffffff16021790555060408201518160020155606082015181600301556080820151816004015560a0820151816005015560c0820151816006015560e08201518160070160006101000a81548160ff0219169083151502179055506101008201518160070160016101000a81548160ff021916908315150217905550905050600260003373ffffffffffffffffffffffffffffffffffffffff1673ffffffffffffffffffffffffffffffffffffffff168152602001908152602001600020829080600181540180825580915050600190039060005260206000200160009091909190915055600260008873ffffffffffffffffffffffffffffffffffffffff1673ffffffffffffffffffffffffffffffffffffffff1681526020019081526020016000208290806001815401808255809150506001900390600052602060002001600090919091909150558673ffffffffffffffffffffffffffffffffffffffff163373ffffffffffffffffffffffffffffffffffffffff16837fbbe4a5a0ae86296b0b7baf33c5c830adb7141bb861f487c78269d7ed92ece0bd8989604051610856929190612a39565b60405180910390a48192505050949350505050565b60045481565b6060600260008373ffffffffffffffffffffffffffffffffffffffff1673ffffffffffffffffffffffffffffffffffffffff1681526020019081526020016000208054806020026020016040519081016040528092919081815260200182805480156108fc57602002820191906000526020600020905b8154815260200190600101908083116108e8575b50505050509050919050565b600454811061094c576040517f08c379a000000000000000000000000000000000000000000000000000000000815260040161094390612aae565b60405180910390fd5b600080600083815260200190815260200160002090508060070160009054906101000a900460ff166109b3576040517f08c379a00000000000000000000000000000000000000000000000000000000081526004016109aa90612b1a565b60405180910390fd5b8060070160019054906101000a900460ff1615610a05576040517f08c379a00000000000000000000000000000000000000000000000000000000081526004016109fc90612b86565b60405180910390fd5b6000610a10836114c3565b905060008111610a55576040517f08c379a0000000000000000000000000000000000000000000000000000000008152600401610a4c90612bf2565b60405180910390fd5b60008260000160009054906101000a900473ffffffffffffffffffffffffffffffffffffffff16905060008360010160009054906101000a900473ffffffffffffffffffffffffffffffffffffffff16905082600360008473ffffffffffffffffffffffffffffffffffffffff1673ffffffffffffffffffffffffffffffffffffffff168152602001908152602001600020541015610b29576040517f08c379a0000000000000000000000000000000000000000000000000000000008152600401610b2090612c5e565b60405180910390fd5b82600360008473ffffffffffffffffffffffffffffffffffffffff1673ffffffffffffffffffffffffffffffffffffffff1681526020019081526020016000206000828254610b789190612c7e565b9250508190555082600360008373ffffffffffffffffffffffffffffffffffffffff1673ffffffffffffffffffffffffffffffffffffffff1681526020019081526020016000206000828254610bce9190612a05565b92505081905550600160008681526020019081526020016000206040518060c001604052808781526020018473ffffffffffffffffffffffffffffffffffffffff1681526020018373ffffffffffffffffffffffffffffffffffffffff1681526020018581526020014281526020016001151581525090806001815401808255809150506001900390600052602060002090600602016000909190919091506000820151816000015560208201518160010160006101000a81548173ffffffffffffffffffffffffffffffffffffffff021916908373ffffffffffffffffffffffffffffffffffffffff16021790555060408201518160020160006101000a81548173ffffffffffffffffffffffffffffffffffffffff021916908373ffffffffffffffffffffffffffffffffffffffff160217905550606082015181600301556080820151816004015560a08201518160050160006101000a81548160ff02191690831515021790555050508073ffffffffffffffffffffffffffffffffffffffff168273ffffffffffffffffffffffffffffffffffffffff16867f37a13dcf7266fe3681e46ca252ea4f79e8a76da88ae9446f99242fbc014a6c3986604051610d99919061212b565b60405180910390a45050505050565b60016020528160005260406000208181548110610dc457600080fd5b9060005260206000209060060201600091509150508060000154908060010160009054906101000a900473ffffffffffffffffffffffffffffffffffffffff16908060020160009054906101000a900473ffffffffffffffffffffffffffffffffffffffff16908060030154908060040154908060050160009054906101000a900460ff16905086565b60006020528060005260406000206000915090508060000160009054906101000a900473ffffffffffffffffffffffffffffffffffffffff16908060010160009054906101000a900473ffffffffffffffffffffffffffffffffffffffff16908060020154908060030154908060040154908060050154908060060154908060070160009054906101000a900460ff16908060070160019054906101000a900460ff16905089565b606060016000838152602001908152602001600020805480602002602001604051908101604052809291908181526020016000905b8282101561104257838290600052602060002090600602016040518060c0016040529081600082015481526020016001820160009054906101000a900473ffffffffffffffffffffffffffffffffffffffff1673ffffffffffffffffffffffffffffffffffffffff1673ffffffffffffffffffffffffffffffffffffffff1681526020016002820160009054906101000a900473ffffffffffffffffffffffffffffffffffffffff1673ffffffffffffffffffffffffffffffffffffffff1673ffffffffffffffffffffffffffffffffffffffff16815260200160038201548152602001600482015481526020016005820160009054906101000a900460ff16151515158152505081526020019060010190610f2b565b505050509050919050565b6004548210611091576040517f08c379a000000000000000000000000000000000000000000000000000000000815260040161108890612aae565b60405180910390fd5b600080600084815260200190815260200160002090508060000160009054906101000a900473ffffffffffffffffffffffffffffffffffffffff1673ffffffffffffffffffffffffffffffffffffffff163373ffffffffffffffffffffffffffffffffffffffff16148061115457508060010160009054906101000a900473ffffffffffffffffffffffffffffffffffffffff1673ffffffffffffffffffffffffffffffffffffffff163373ffffffffffffffffffffffffffffffffffffffff16145b611193576040517f08c379a000000000000000000000000000000000000000000000000000000000815260040161118a90612cfe565b60405180910390fd5b60018160070160016101000a81548160ff0219169083151502179055503373ffffffffffffffffffffffffffffffffffffffff16837f1283d334391c73c579076ba17e33e8e578a3c30bb469c7eda030e918e6ec445c846040516111f79190612d8c565b60405180910390a3505050565b60036020528060005260406000206000915090505481565b611224611f91565b6004548210611268576040517f08c379a000000000000000000000000000000000000000000000000000000000815260040161125f90612aae565b60405180910390fd5b600080838152602001908152602001600020604051806101200160405290816000820160009054906101000a900473ffffffffffffffffffffffffffffffffffffffff1673ffffffffffffffffffffffffffffffffffffffff1673ffffffffffffffffffffffffffffffffffffffff1681526020016001820160009054906101000a900473ffffffffffffffffffffffffffffffffffffffff1673ffffffffffffffffffffffffffffffffffffffff1673ffffffffffffffffffffffffffffffffffffffff16815260200160028201548152602001600382015481526020016004820154815260200160058201548152602001600682015481526020016007820160009054906101000a900460ff161515151581526020016007820160019054906101000a900460ff1615151515815250509050919050565b80600360003373ffffffffffffffffffffffffffffffffffffffff1673ffffffffffffffffffffffffffffffffffffffff168152602001908152602001600020541015611423576040517f08c379a000000000000000000000000000000000000000000000000000000000815260040161141a90612dfa565b60405180910390fd5b80600360003373ffffffffffffffffffffffffffffffffffffffff1673ffffffffffffffffffffffffffffffffffffffff16815260200190815260200160002060008282546114729190612c7e565b925050819055503373ffffffffffffffffffffffffffffffffffffffff166108fc829081150290604051600060405180830381858888f193505050501580156114bf573d6000803e3d6000fd5b5050565b60006004548210611509576040517f08c379a000000000000000000000000000000000000000000000000000000000815260040161150090612aae565b60405180910390fd5b6000806000848152602001908152602001600020604051806101200160405290816000820160009054906101000a900473ffffffffffffffffffffffffffffffffffffffff1673ffffffffffffffffffffffffffffffffffffffff1673ffffffffffffffffffffffffffffffffffffffff1681526020016001820160009054906101000a900473ffffffffffffffffffffffffffffffffffffffff1673ffffffffffffffffffffffffffffffffffffffff1673ffffffffffffffffffffffffffffffffffffffff16815260200160028201548152602001600382015481526020016004820154815260200160058201548152602001600682015481526020016007820160009054906101000a900460ff161515151581526020016007820160019054906101000a900460ff16151515158152505090506000816040015182606001511161165a578160600151611660565b81604001515b905081608001518161167291906129c3565b92505050919050565b60045482106116bf576040517f08c379a00000000000000000000000000000000000000000000000000000000081526004016116b690612aae565b60405180910390fd5b600080600084815260200190815260200160002090508060010160009054906101000a900473ffffffffffffffffffffffffffffffffffffffff1673ffffffffffffffffffffffffffffffffffffffff163373ffffffffffffffffffffffffffffffffffffffff1614611767576040517f08c379a000000000000000000000000000000000000000000000000000000000815260040161175e90612e66565b60405180910390fd5b80600201548211156117ae576040517f08c379a00000000000000000000000000000000000000000000000000000000081526004016117a590612ed2565b60405180910390fd5b818160030181905550827facc36f87eccd6eef08ad88a7449e7c9f66b8915b0e07c5960e4a7f81c70bcdfd836040516117e7919061212b565b60405180910390a2505050565b6004548110611838576040517f08c379a000000000000000000000000000000000000000000000000000000000815260040161182f90612aae565b60405180910390fd5b600080600083815260200190815260200160002090508060010160009054906101000a900473ffffffffffffffffffffffffffffffffffffffff1673ffffffffffffffffffffffffffffffffffffffff163373ffffffffffffffffffffffffffffffffffffffff1614806118fb57508060000160009054906101000a900473ffffffffffffffffffffffffffffffffffffffff1673ffffffffffffffffffffffffffffffffffffffff163373ffffffffffffffffffffffffffffffffffffffff16145b61193a576040517f08c379a000000000000000000000000000000000000000000000000000000000815260040161193190612f3e565b60405180910390fd5b6000611945836114c3565b9050600160008481526020019081526020016000206040518060c001604052808581526020018460000160009054906101000a900473ffffffffffffffffffffffffffffffffffffffff1673ffffffffffffffffffffffffffffffffffffffff1681526020018460010160009054906101000a900473ffffffffffffffffffffffffffffffffffffffff1673ffffffffffffffffffffffffffffffffffffffff1681526020018381526020014281526020016001151581525090806001815401808255809150506001900390600052602060002090600602016000909190919091506000820151816000015560208201518160010160006101000a81548173ffffffffffffffffffffffffffffffffffffffff021916908373ffffffffffffffffffffffffffffffffffffffff16021790555060408201518160020160006101000a81548173ffffffffffffffffffffffffffffffffffffffff021916908373ffffffffffffffffffffffffffffffffffffffff160217905550606082015181600301556080820151816004015560a08201518160050160006101000a81548160ff02191690831515021790555050508160010160009054906101000a900473ffffffffffffffffffffffffffffffffffffffff1673ffffffffffffffffffffffffffffffffffffffff168260000160009054906101000a900473ffffffffffffffffffffffffffffffffffffffff1673ffffffffffffffffffffffffffffffffffffffff16847f37a13dcf7266fe3681e46ca252ea4f79e8a76da88ae9446f99242fbc014a6c3984604051611b9b919061212b565b60405180910390a4505050565b60026020528160005260406000208181548110611bc457600080fd5b90600052602060002001600091509150505481565b6004548110611c1d576040517f08c379a0000000000000000000000000000000000000000000000000000000008152600401611c1490612aae565b60405180910390fd5b6000806000838152602001908152602001600020604051806101200160405290816000820160009054906101000a900473ffffffffffffffffffffffffffffffffffffffff1673ffffffffffffffffffffffffffffffffffffffff1673ffffffffffffffffffffffffffffffffffffffff1681526020016001820160009054906101000a900473ffffffffffffffffffffffffffffffffffffffff1673ffffffffffffffffffffffffffffffffffffffff1673ffffffffffffffffffffffffffffffffffffffff16815260200160028201548152602001600382015481526020016004820154815260200160058201548152602001600682015481526020016007820160009054906101000a900460ff161515151581526020016007820160019054906101000a900460ff16151515158152505090508060e00151611d97576040517f08c379a0000000000000000000000000000000000000000000000000000000008152600401611d8e90612b1a565b60405180910390fd5b34600360003373ffffffffffffffffffffffffffffffffffffffff1673ffffffffffffffffffffffffffffffffffffffff1681526020019081526020016000206000828254611de69190612a05565b925050819055505050565b6004548110611e35576040517f08c379a0000000000000000000000000000000000000000000000000000000008152600401611e2c90612aae565b60405180910390fd5b600080600083815260200190815260200160002090508060000160009054906101000a900473ffffffffffffffffffffffffffffffffffffffff1673ffffffffffffffffffffffffffffffffffffffff163373ffffffffffffffffffffffffffffffffffffffff161480611ef857508060010160009054906101000a900473ffffffffffffffffffffffffffffffffffffffff1673ffffffffffffffffffffffffffffffffffffffff163373ffffffffffffffffffffffffffffffffffffffff16145b611f37576040517f08c379a0000000000000000000000000000000000000000000000000000000008152600401611f2e90612cfe565b60405180910390fd5b60008160070160006101000a81548160ff021916908315150217905550817f65f23519e31ef3d236c4f2fa6921965f60acb2d7f84411511a7ede70fe2449fe6001604051611f859190612f5e565b60405180910390a25050565b604051806101200160405280600073ffffffffffffffffffffffffffffffffffffffff168152602001600073ffffffffffffffffffffffffffffffffffffffff16815260200160008152602001600081526020016000815260200160008152602001600081526020016000151581526020016000151581525090565b6000604051905090565b600080fd5b600080fd5b600073ffffffffffffffffffffffffffffffffffffffff82169050919050565b600061204c82612021565b9050919050565b61205c81612041565b811461206757600080fd5b50565b60008135905061207981612053565b92915050565b6000819050919050565b6120928161207f565b811461209d57600080fd5b50565b6000813590506120af81612089565b92915050565b600080600080608085870312156120cf576120ce612017565b5b60006120dd8782880161206a565b94505060206120ee878288016120a0565b93505060406120ff878288016120a0565b9250506060612110878288016120a0565b91505092959194509250565b6121258161207f565b82525050565b6000602082019050612140600083018461211c565b92915050565b60006020828403121561215c5761215b612017565b5b600061216a8482850161206a565b91505092915050565b600081519050919050565b600082825260208201905092915050565b6000819050602082019050919050565b6121a88161207f565b82525050565b60006121ba838361219f565b60208301905092915050565b6000602082019050919050565b60006121de82612173565b6121e8818561217e565b93506121f38361218f565b8060005b8381101561222457815161220b88826121ae565b9750612216836121c6565b9250506001810190506121f7565b5085935050505092915050565b6000602082019050818103600083015261224b81846121d3565b905092915050565b60006020828403121561226957612268612017565b5b6000612277848285016120a0565b91505092915050565b6000806040838503121561229757612296612017565b5b60006122a5858286016120a0565b92505060206122b6858286016120a0565b9150509250929050565b6122c981612041565b82525050565b60008115159050919050565b6122e4816122cf565b82525050565b600060c0820190506122ff600083018961211c565b61230c60208301886122c0565b61231960408301876122c0565b612326606083018661211c565b612333608083018561211c565b61234060a08301846122db565b979650505050505050565b600061012082019050612361600083018c6122c0565b61236e602083018b6122c0565b61237b604083018a61211c565b612388606083018961211c565b612395608083018861211c565b6123a260a083018761211c565b6123af60c083018661211c565b6123bc60e08301856122db565b6123ca6101008301846122db565b9a9950505050505050505050565b600081519050919050565b600082825260208201905092915050565b6000819050602082019050919050565b61240d81612041565b82525050565b61241c816122cf565b82525050565b60c082016000820151612438600085018261219f565b50602082015161244b6020850182612404565b50604082015161245e6040850182612404565b506060820151612471606085018261219f565b506080820151612484608085018261219f565b5060a082015161249760a0850182612413565b50505050565b60006124a98383612422565b60c08301905092915050565b6000602082019050919050565b60006124cd826123d8565b6124d781856123e3565b93506124e2836123f4565b8060005b838110156125135781516124fa888261249d565b9750612505836124b5565b9250506001810190506124e6565b5085935050505092915050565b6000602082019050818103600083015261253a81846124c2565b905092915050565b600080fd5b600080fd5b6000601f19601f8301169050919050565b7f4e487b7100000000000000000000000000000000000000000000000000000000600052604160045260246000fd5b6125958261254c565b810181811067ffffffffffffffff821117156125b4576125b361255d565b5b80604052505050565b60006125c761200d565b90506125d3828261258c565b919050565b600067ffffffffffffffff8211156125f3576125f261255d565b5b6125fc8261254c565b9050602081019050919050565b82818337600083830152505050565b600061262b612626846125d8565b6125bd565b90508281526020810184848401111561264757612646612547565b5b612652848285612609565b509392505050565b600082601f83011261266f5761266e612542565b5b813561267f848260208601612618565b91505092915050565b6000806040838503121561269f5761269e612017565b5b60006126ad858286016120a0565b925050602083013567ffffffffffffffff8111156126ce576126cd61201c565b5b6126da8582860161265a565b9150509250929050565b610120820160008201516126fb6000850182612404565b50602082015161270e6020850182612404565b506040820151612721604085018261219f565b506060820151612734606085018261219f565b506080820151612747608085018261219f565b5060a082015161275a60a085018261219f565b5060c082015161276d60c085018261219f565b5060e082015161278060e0850182612413565b50610100820151612795610100850182612413565b50505050565b6000610120820190506127b160008301846126e4565b92915050565b600080604083850312156127ce576127cd612017565b5b60006127dc8582860161206a565b92505060206127ed858286016120a0565b9150509250929050565b600082825260208201905092915050565b7f496e76616c69642070726f766964657220616464726573730000000000000000600082015250565b600061283e6018836127f7565b915061284982612808565b602082019050919050565b6000602082019050818103600083015261286d81612831565b9050919050565b7f416c6c6f6361746564204742206d757374206265203e20300000000000000000600082015250565b60006128aa6018836127f7565b91506128b582612874565b602082019050919050565b600060208201905081810360008301526128d98161289d565b9050919050565b7f4475726174696f6e206d757374206265203e2030000000000000000000000000600082015250565b60006129166014836127f7565b9150612921826128e0565b602082019050919050565b6000602082019050818103600083015261294581612909565b9050919050565b7f4e487b7100000000000000000000000000000000000000000000000000000000600052601160045260246000fd5b60006129868261207f565b91507fffffffffffffffffffffffffffffffffffffffffffffffffffffffffffffffff82036129b8576129b761294c565b5b600182019050919050565b60006129ce8261207f565b91506129d98361207f565b92508282026129e78161207f565b915082820484148315176129fe576129fd61294c565b5b5092915050565b6000612a108261207f565b9150612a1b8361207f565b9250828201905080821115612a3357612a3261294c565b5b92915050565b6000604082019050612a4e600083018561211c565b612a5b602083018461211c565b9392505050565b7f436f6e7472616374206e6f7420666f756e640000000000000000000000000000600082015250565b6000612a986012836127f7565b9150612aa382612a62565b602082019050919050565b60006020820190508181036000830152612ac781612a8b565b9050919050565b7f436f6e7472616374206e6f742061637469766500000000000000000000000000600082015250565b6000612b046013836127f7565b9150612b0f82612ace565b602082019050919050565b60006020820190508181036000830152612b3381612af7565b9050919050565b7f436f6e7472616374206973206469737075746564000000000000000000000000600082015250565b6000612b706014836127f7565b9150612b7b82612b3a565b602082019050919050565b60006020820190508181036000830152612b9f81612b63565b9050919050565b7f4e6f207061796d656e7420647565000000000000000000000000000000000000600082015250565b6000612bdc600e836127f7565b9150612be782612ba6565b602082019050919050565b60006020820190508181036000830152612c0b81612bcf565b9050919050565b7f496e73756666696369656e7420657363726f772062616c616e63650000000000600082015250565b6000612c48601b836127f7565b9150612c5382612c12565b602082019050919050565b60006020820190508181036000830152612c7781612c3b565b9050919050565b6000612c898261207f565b9150612c948361207f565b9250828203905081811115612cac57612cab61294c565b5b92915050565b7f4e6f74206120706172747920746f20636f6e7472616374000000000000000000600082015250565b6000612ce86017836127f7565b9150612cf382612cb2565b602082019050919050565b60006020820190508181036000830152612d1781612cdb565b9050919050565b600081519050919050565b60005b83811015612d47578082015181840152602081019050612d2c565b60008484015250505050565b6000612d5e82612d1e565b612d6881856127f7565b9350612d78818560208601612d29565b612d818161254c565b840191505092915050565b60006020820190508181036000830152612da68184612d53565b905092915050565b7f496e73756666696369656e742062616c616e6365000000000000000000000000600082015250565b6000612de46014836127f7565b9150612def82612dae565b602082019050919050565b60006020820190508181036000830152612e1381612dd7565b9050919050565b7f4f6e6c792070726f76696465722063616e207570646174652075736167650000600082015250565b6000612e50601e836127f7565b9150612e5b82612e1a565b602082019050919050565b60006020820190508181036000830152612e7f81612e43565b9050919050565b7f5573616765206578636565647320616c6c6f636174696f6e0000000000000000600082015250565b6000612ebc6018836127f7565b9150612ec782612e86565b602082019050919050565b60006020820190508181036000830152612eeb81612eaf565b9050919050565b7f4e6f7420617574686f72697a6564000000000000000000000000000000000000600082015250565b6000612f28600e836127f7565b9150612f3382612ef2565b602082019050919050565b60006020820190508181036000830152612f5781612f1b565b9050919050565b6000602082019050612f7360008301846122db565b9291505056fea26469706673582212201ad7868fa1dfac71c95eba6d8d6cd0b9e2e6c58c242fc743fb27f542d6607aa864736f6c63430008140033",
  "linkReferences": {},
  "deployedLinkReferences": {}
}