{"blockchain/StorageContractV2.sol":{"StorageContractV2":{"abi":[{"anonymous":false,"inputs":[{"indexed":true,"internalType":"uint256","name":"agreementId","type":"uint256"},{"indexed":true,"internalType":"address","name":"renter","type":"address"},{"indexed":true,"internalType":"address","name":"provider","type":"address"},{"indexed":false,"internalType":"uint256","name":"allocatedGB","type":"uint256"},{"indexed":false,"internalType":"uint256","name":"totalCost","type":"uint256"}],"name":"AgreementCreated","type":"event"},{"anonymous":false,"inputs":[{"indexed":true,"internalType":"uint256","name":"agreementId","type":"uint256"}],"name":"AgreementFulfilled","type":"event"},{"anonymous":false,"inputs":[{"indexed":true,"internalType":"uint256","name":"agreementId","type":"uint256"},{"indexed":true,"internalType":"address","name":"depositor","type":"address"},{"indexed":false,"internalType":"uint256","name":"amount","type":"uint256"}],"name":"EscrowDeposited","type":"event"},{"anonymous":false,"inputs":[{"indexed":true,"internalType":"uint256","name":"agreementId","type":"uint256"},{"indexed":true,"internalType":"address","name":"from","type":"address"},{"indexed":true,"internalType":"address","name":"to","type":"address"},{"indexed":false,"internalType":"uint256","name":"amount","type":"uint256"}],"name":"PaymentProcessed","type":"event"},{"anonymous":false,"inputs":[{"indexed":true,"internalType":"uint256","name":"agreementId","type":"uint256"},{"indexed":false,"internalType":"uint256","name":"oldUsage","type":"uint256"},{"indexed":false,"internalType":"uint256","name":"newUsage","type":"uint256"}],"name":"StorageUsageUpdated","type":"event"},{"inputs":[{"internalType":"uint256","name":"","type":"uint256"}],"name":"agreements","outputs":[{"internalType":"address","name":"renter","type":"address"},{"internalType":"address","name":"provider","type":"address"},{"internalType":"uint256","name":"allocatedGB","type":"uint256"},{"internalType":"uint256","name":"usedGB","type":"uint256"},{"internalType":"uint256","name":"pricePerGBPerMonth","type":"uint256"},{"internalType":"uint256","name":"durationMonths","type":"uint256"},{"internalType":"uint256","name":"totalCost","type":"uint256"},{"internalType":"uint256","name":"escrowBalance","type":"uint256"},{"internalType":"uint256","name":"createdAt","type":"uint256"},{"internalType":"uint256","name":"expiresAt","type":"uint256"},{"internalType":"bool","name":"active","type":"bool"},{"internalType":"bool","name":"fulfilled","type":"bool"}],"stateMutability":"view","type":"function"},{"inputs":[{"internalType":"uint256","name":"_agreementId","type":"uint256"}],"name":"calculateMonthlyPayment","outputs":[{"internalType":"uint256","name":"","type":"uint256"}],"stateMutability":"view","type":"function"},{"inputs":[{"internalType":"address","name":"_provider","type":"address"},{"internalType":"uint256","name":"_allocatedGB","type":"uint256"},{"internalType":"uint256","name":"_pricePerGBPerMonth","type":"uint256"},{"internalType":"uint256","name":"_durationMonths","type":"uint256"}],"name":"createAgreement","outputs":[{"internalType":"uint256","name":"","type":"uint256"}],"stateMutability":"payable","type":"function"},{"inputs":[{"internalType":"uint256","name":"_agreementId","type":"uint256"}],"name":"depositEscrow","outputs":[],"stateMutability":"payable","type":"function"},{"inputs":[{"internalType":"uint256","name":"_agreementId","type":"uint256"}],"name":"getAgreement","outputs":[{"internalType":"address","name":"renter","type":"address"},{"internalType":"address","name":"provider","type":"address"},{"internalType":"uint256","name":"allocatedGB","type":"uint256"},{"internalType":"uint256","name":"usedGB","type":"uint256"},{"internalType":"uint256","name":"pricePerGBPerMonth","type":"uint256"},{"internalType":"uint256","name":"escrowBalance","type":"uint256"},{"internalType":"bool","name":"active","type":"bool"},{"internalType":"bool","name":"fulfilled","type":"bool"}],"stateMutability":"view","type":"function"},{"inputs":[],"name":"nextAgreementId","outputs":[{"internalType":"uint256","name":"","type":"uint256"}],"stateMutability":"view","type":"function"},{"inputs":[{"internalType":"uint256","name":"_agreementId","type":"uint256"}],"name":"processPayment","outputs":[],"stateMutability":"nonpayable","type":"function"},{"inputs":[{"internalType":"uint256","name":"_agreementId","type":"uint256"},{"internalType":"uint256","name":"_newUsedGB","type":"uint256"}],"name":"updateStorageUsage","outputs":[],"stateMutability":"nonpayable","type":"function"},{"inputs":[{"internalType":"uint256","name":"_agreementId","type":"uint256"}],"name":"withdrawEscrow","outputs":[],"stateMutability":"nonpayable","type":"function"}],"evm":{"bytecode":{"linkReferences":{},"object":"60806040526001805534801561001457600080fd5b506119a7806100246000396000f3fe6080604052600436106100865760003560e01c80639a9ae8e3116100595780639a9ae8e3146101515780639de359d71461018e578063bd14de96146101b7578063c9b99dab146101ff578063cb991efe1461022a57610086565b80633a2f84851461008b5780634f9f6fe6146100b45780635f699746146100f8578063876512d014610128575b600080fd5b34801561009757600080fd5b506100b260048036038101906100ad9190610fdc565b610246565b005b3480156100c057600080fd5b506100db60048036038101906100d69190610fdc565b610504565b6040516100ef989796959493929190611074565b60405180910390f35b610112600480360381019061010d919061111e565b6105c4565b60405161011f9190611185565b60405180910390f35b34801561013457600080fd5b5061014f600480360381019061014a9190610fdc565b610a0f565b005b34801561015d57600080fd5b5061017860048036038101906101739190610fdc565b610baf565b6040516101859190611185565b60405180910390f35b34801561019a57600080fd5b506101b560048036038101906101b091906111a0565b610be8565b005b3480156101c357600080fd5b506101de60048036038101906101d99190610fdc565b610d7a565b6040516101f69c9b9a999897969594939291906111e0565b60405180910390f35b34801561020b57600080fd5b50610214610e34565b6040516102219190611185565b60405180910390f35b610244600480360381019061023f9190610fdc565b610e3a565b005b6000806000838152602001908152602001600020905080600a0160009054906101000a900460ff166102ad576040517f08c379a00000000000000000000000000000000000000000000000000000000081526004016102a4906112f7565b60405180910390fd5b806009015442106102f3576040517f08c379a00000000000000000000000000000000000000000000000000000000081526004016102ea90611363565b60405180910390fd5b60006102fe83610baf565b90508082600701541015610347576040517f08c379a000000000000000000000000000000000000000000000000000000000815260040161033e906113cf565b60405180910390fd5b8082600701600082825461035b919061141e565b925050819055508160010160009054906101000a900473ffffffffffffffffffffffffffffffffffffffff1673ffffffffffffffffffffffffffffffffffffffff166108fc829081150290604051600060405180830381858888f193505050501580156103cc573d6000803e3d6000fd5b508160010160009054906101000a900473ffffffffffffffffffffffffffffffffffffffff1673ffffffffffffffffffffffffffffffffffffffff168260000160009054906101000a900473ffffffffffffffffffffffffffffffffffffffff1673ffffffffffffffffffffffffffffffffffffffff16847f37a13dcf7266fe3681e46ca252ea4f79e8a76da88ae9446f99242fbc014a6c39846040516104739190611185565b60405180910390a4600082600701541480610492575081600901544210155b156104ff57600082600a0160006101000a81548160ff021916908315150217905550600182600a0160016101000a81548160ff021916908315150217905550827f52867b6621c82bd178a9944b8c1f1f29aba680811948fb9f8cfbd2fbd46108ee60405160405180910390a25b505050565b60008060008060008060008060008060008b815260200190815260200160002090508060000160009054906101000a900473ffffffffffffffffffffffffffffffffffffffff168160010160009054906101000a900473ffffffffffffffffffffffffffffffffffffffff16826002015483600301548460040154856007015486600a0160009054906101000a900460ff1687600a0160019054906101000a900460ff169850985098509850985098509850985050919395975091939597565b60008073ffffffffffffffffffffffffffffffffffffffff168573ffffffffffffffffffffffffffffffffffffffff1603610634576040517f08c379a000000000000000000000000000000000000000000000000000000000815260040161062b9061149e565b60405180910390fd5b60008411610677576040517f08c379a000000000000000000000000000000000000000000000000000000000815260040161066e9061150a565b60405180910390fd5b600083116106ba576040517f08c379a00000000000000000000000000000000000000000000000000000000081526004016106b190611576565b60405180910390fd5b600082116106fd576040517f08c379a00000000000000000000000000000000000000000000000000000000081526004016106f4906115e2565b60405180910390fd5b600082848661070c9190611602565b6107169190611602565b90508034101561075b576040517f08c379a0000000000000000000000000000000000000000000000000000000008152600401610752906113cf565b60405180910390fd5b60006001600081548092919061077090611644565b9190505590506040518061018001604052803373ffffffffffffffffffffffffffffffffffffffff1681526020018873ffffffffffffffffffffffffffffffffffffffff1681526020018781526020016000815260200186815260200185815260200183815260200134815260200142815260200162278d00866107f49190611602565b426107ff919061168c565b81526020016001151581526020016000151581525060008083815260200190815260200160002060008201518160000160006101000a81548173ffffffffffffffffffffffffffffffffffffffff021916908373ffffffffffffffffffffffffffffffffffffffff16021790555060208201518160010160006101000a81548173ffffffffffffffffffffffffffffffffffffffff021916908373ffffffffffffffffffffffffffffffffffffffff16021790555060408201518160020155606082015181600301556080820151816004015560a0820151816005015560c0820151816006015560e082015181600701556101008201518160080155610120820151816009015561014082015181600a0160006101000a81548160ff02191690831515021790555061016082015181600a0160016101000a81548160ff0219169083151502179055509050508673ffffffffffffffffffffffffffffffffffffffff163373ffffffffffffffffffffffffffffffffffffffff16827f3c1867bff257696179f61d7c10de569ff1df9e3b93eea435163e124b264843fa89866040516109ab9291906116c0565b60405180910390a43373ffffffffffffffffffffffffffffffffffffffff16817f9a57bbb234b70fc26fbb5c8d65f00c0bba23b19c4a7bb1aedb26c7a04269f747346040516109fa9190611185565b60405180910390a38092505050949350505050565b600080600083815260200190815260200160002090508060000160009054906101000a900473ffffffffffffffffffffffffffffffffffffffff1673ffffffffffffffffffffffffffffffffffffffff163373ffffffffffffffffffffffffffffffffffffffff1614610ab7576040517f08c379a0000000000000000000000000000000000000000000000000000000008152600401610aae90611735565b60405180910390fd5b80600a0160009054906101000a900460ff1615610b09576040517f08c379a0000000000000000000000000000000000000000000000000000000008152600401610b00906117a1565b60405180910390fd5b6000816007015411610b50576040517f08c379a0000000000000000000000000000000000000000000000000000000008152600401610b479061180d565b60405180910390fd5b600081600701549050600082600701819055503373ffffffffffffffffffffffffffffffffffffffff166108fc829081150290604051600060405180830381858888f19350505050158015610ba9573d6000803e3d6000fd5b50505050565b6000806000808481526020019081526020016000209050600081600401548260020154610bdc9190611602565b90508092505050919050565b6000806000848152602001908152602001600020905080600a0160009054906101000a900460ff16610c4f576040517f08c379a0000000000000000000000000000000000000000000000000000000008152600401610c46906112f7565b60405180910390fd5b8060010160009054906101000a900473ffffffffffffffffffffffffffffffffffffffff1673ffffffffffffffffffffffffffffffffffffffff163373ffffffffffffffffffffffffffffffffffffffff1614610ce1576040517f08c379a0000000000000000000000000000000000000000000000000000000008152600401610cd890611879565b60405180910390fd5b8060020154821115610d28576040517f08c379a0000000000000000000000000000000000000000000000000000000008152600401610d1f906118e5565b60405180910390fd5b600081600301549050828260030181905550837f8ff41d718bc138fbd8310708a964e642953f0258fd5ffb02020754b0a3a5ad438285604051610d6c9291906116c0565b60405180910390a250505050565b60006020528060005260406000206000915090508060000160009054906101000a900473ffffffffffffffffffffffffffffffffffffffff16908060010160009054906101000a900473ffffffffffffffffffffffffffffffffffffffff169080600201549080600301549080600401549080600501549080600601549080600701549080600801549080600901549080600a0160009054906101000a900460ff169080600a0160019054906101000a900460ff1690508c565b60015481565b6000806000838152602001908152602001600020905080600a0160009054906101000a900460ff16610ea1576040517f08c379a0000000000000000000000000000000000000000000000000000000008152600401610e98906112f7565b60405180910390fd5b8060000160009054906101000a900473ffffffffffffffffffffffffffffffffffffffff1673ffffffffffffffffffffffffffffffffffffffff163373ffffffffffffffffffffffffffffffffffffffff1614610f33576040517f08c379a0000000000000000000000000000000000000000000000000000000008152600401610f2a90611951565b60405180910390fd5b34816007016000828254610f47919061168c565b925050819055503373ffffffffffffffffffffffffffffffffffffffff16827f9a57bbb234b70fc26fbb5c8d65f00c0bba23b19c4a7bb1aedb26c7a04269f74734604051610f959190611185565b60405180910390a35050565b600080fd5b6000819050919050565b610fb981610fa6565b8114610fc457600080fd5b50565b600081359050610fd681610fb0565b92915050565b600060208284031215610ff257610ff1610fa1565b5b600061100084828501610fc7565b91505092915050565b600073ffffffffffffffffffffffffffffffffffffffff82169050919050565b600061103482611009565b9050919050565b61104481611029565b82525050565b61105381610fa6565b82525050565b60008115159050919050565b61106e81611059565b82525050565b60006101008201905061108a600083018b61103b565b611097602083018a61103b565b6110a4604083018961104a565b6110b1606083018861104a565b6110be608083018761104a565b6110cb60a083018661104a565b6110d860c0830185611065565b6110e560e0830184611065565b9998505050505050505050565b6110fb81611029565b811461110657600080fd5b50565b600081359050611118816110f2565b92915050565b6000806000806080858703121561113857611137610fa1565b5b600061114687828801611109565b945050602061115787828801610fc7565b935050604061116887828801610fc7565b925050606061117987828801610fc7565b91505092959194509250565b600060208201905061119a600083018461104a565b92915050565b600080604083850312156111b7576111b6610fa1565b5b60006111c585828601610fc7565b92505060206111d685828601610fc7565b9150509250929050565b6000610180820190506111f6600083018f61103b565b611203602083018e61103b565b611210604083018d61104a565b61121d606083018c61104a565b61122a608083018b61104a565b61123760a083018a61104a565b61124460c083018961104a565b61125160e083018861104a565b61125f61010083018761104a565b61126d61012083018661104a565b61127b610140830185611065565b611289610160830184611065565b9d9c50505050505050505050505050565b600082825260208201905092915050565b7f41677265656d656e74206e6f7420616374697665000000000000000000000000600082015250565b60006112e160148361129a565b91506112ec826112ab565b602082019050919050565b60006020820190508181036000830152611310816112d4565b9050919050565b7f41677265656d656e742065787069726564000000000000000000000000000000600082015250565b600061134d60118361129a565b915061135882611317565b602082019050919050565b6000602082019050818103600083015261137c81611340565b9050919050565b7f496e73756666696369656e7420657363726f7700000000000000000000000000600082015250565b60006113b960138361129a565b91506113c482611383565b602082019050919050565b600060208201905081810360008301526113e8816113ac565b9050919050565b7f4e487b7100000000000000000000000000000000000000000000000000000000600052601160045260246000fd5b600061142982610fa6565b915061143483610fa6565b925082820390508181111561144c5761144b6113ef565b5b92915050565b7f496e76616c69642070726f766964657200000000000000000000000000000000600082015250565b600061148860108361129a565b915061149382611452565b602082019050919050565b600060208201905081810360008301526114b78161147b565b9050919050565b7f416c6c6f6361746564204742206d757374206265203e20300000000000000000600082015250565b60006114f460188361129a565b91506114ff826114be565b602082019050919050565b60006020820190508181036000830152611523816114e7565b9050919050565b7f5072696365206d757374206265203e2030000000000000000000000000000000600082015250565b600061156060118361129a565b915061156b8261152a565b602082019050919050565b6000602082019050818103600083015261158f81611553565b9050919050565b7f4475726174696f6e206d757374206265203e2030000000000000000000000000600082015250565b60006115cc60148361129a565b91506115d782611596565b602082019050919050565b600060208201905081810360008301526115fb816115bf565b9050919050565b600061160d82610fa6565b915061161883610fa6565b925082820261162681610fa6565b9150828204841483151761163d5761163c6113ef565b5b5092915050565b600061164f82610fa6565b91507fffffffffffffffffffffffffffffffffffffffffffffffffffffffffffffffff8203611681576116806113ef565b5b600182019050919050565b600061169782610fa6565b91506116a283610fa6565b92508282019050808211156116ba576116b96113ef565b5b92915050565b60006040820190506116d5600083018561104a565b6116e2602083018461104a565b9392505050565b7f4f6e6c792072656e7465722063616e2077697468647261770000000000000000600082015250565b600061171f60188361129a565b915061172a826116e9565b602082019050919050565b6000602082019050818103600083015261174e81611712565b9050919050565b7f41677265656d656e74207374696c6c2061637469766500000000000000000000600082015250565b600061178b60168361129a565b915061179682611755565b602082019050919050565b600060208201905081810360008301526117ba8161177e565b9050919050565b7f4e6f2066756e647320746f207769746864726177000000000000000000000000600082015250565b60006117f760148361129a565b9150611802826117c1565b602082019050919050565b60006020820190508181036000830152611826816117ea565b9050919050565b7f4f6e6c792070726f76696465722063616e207570646174650000000000000000600082015250565b600061186360188361129a565b915061186e8261182d565b602082019050919050565b6000602082019050818103600083015261189281611856565b9050919050565b7f5573616765206578636565647320616c6c6f636174696f6e0000000000000000600082015250565b60006118cf60188361129a565b91506118da82611899565b602082019050919050565b600060208201905081810360008301526118fe816118c2565b9050919050565b7f4f6e6c792072656e7465722063616e206465706f736974000000000000000000600082015250565b600061193b60178361129a565b915061194682611905565b602082019050919050565b6000602082019050818103600083015261196a8161192e565b905091905056fea26469706673582212205d5ee4c8f394796d9a8b19eb4962890dcb9fcc137e1a43289e6e7b80b40078ee64736f6c63430008140033","opcodes":"PUSH1 0x80 PUSH1 0x40 MSTORE PUSH1 0x1 DUP1 SSTORE CALLVALUE DUP1 ISZERO PUSH2 0x14 JUMPI PUSH1 0x0 DUP1 REVERT JUMPDEST POP PUSH2 0x19A7 DUP1 PUSH2 0x24 PUSH1 0x0 CODECOPY PUSH1 0x0 RETURN INVALID PUSH1 0x80 PUSH1 0x40 MSTORE PUSH1 0x4 CALLDATASIZE LT PUSH2 0x86 JUMPI PUSH1 0x0 CALLDATALOAD PUSH1 0xE0 SHR DUP1 PUSH4 0x9A9AE8E3 GT PUSH2 0x59 JUMPI DUP1 PUSH4 0x9A9AE8E3 EQ PUSH2 0x151 JUMPI DUP1 PUSH4 0x9DE359D7 EQ PUSH2 0x18E JUMPI DUP1 PUSH4 0xBD14DE96 EQ PUSH2 0x1B7 JUMPI DUP1 PUSH4 0xC9B99DAB EQ PUSH2 0x1FF JUMPI DUP1 PUSH4 0xCB991EFE EQ PUSH2 0x22A JUMPI PUSH2 0x86 JUMP JUMPDEST DUP1 PUSH4 0x3A2F8485 EQ PUSH2 0x8B JUMPI DUP1 PUSH4 0x4F9F6FE6 EQ PUSH2 0xB4 JUMPI DUP1 PUSH4 0x5F699746 EQ PUSH2 0xF8 JUMPI DUP1 PUSH4 0x876512D0 EQ PUSH2 0x128 JUMPI JUMPDEST PUSH1 0x0 DUP1 REVERT JUMPDEST CALLVALUE DUP1 ISZERO PUSH2 0x97 JUMPI PUSH1 0x0 DUP1 REVERT JUMPDEST POP PUSH2 0xB2 PUSH1 0x4 DUP1 CALLDATASIZE SUB DUP2 ADD SWAP1 PUSH2 0xAD SWAP2 SWAP1 PUSH2 0xFDC JUMP JUMPDEST PUSH2 0x246 JUMP JUMPDEST STOP JUMPDEST CALLVALUE DUP1 ISZERO PUSH2 0xC0 JUMPI PUSH1 0x0 DUP1 REVERT JUMPDEST POP PUSH2 0xDB PUSH1 0x4 DUP1 CALLDATASIZE SUB DUP2 ADD SWAP1 PUSH2 0xD6 SWAP2 SWAP1 PUSH2 0xFDC JUMP JUMPDEST PUSH2 0x504 JUMP JUMPDEST PUSH1 0x40 MLOAD PUSH2 0xEF SWAP9 SWAP8 SWAP7 SWAP6 SWAP5 SWAP4 SWAP3 SWAP2 SWAP1 PUSH2 0x1074 JUMP JUMPDEST PUSH1 0x40 MLOAD DUP1 SWAP2 SUB SWAP1 RETURN JUMPDEST PUSH2 0x112 PUSH1 0x4 DUP1 CALLDATASIZE SUB DUP2 ADD SWAP1 PUSH2 0x10D SWAP2 SWAP1 PUSH2 0x111E JUMP JUMPDEST PUSH2 0x5C4 JUMP JUMPDEST PUSH1 0x40 MLOAD PUSH2 0x11F SWAP2 SWAP1 PUSH2 0x1185 JUMP JUMPDEST PUSH1 0x40 MLOAD DUP1 SWAP2 SUB SWAP1 RETURN JUMPDEST CALLVALUE DUP1 ISZERO PUSH2 0x134 JUMPI PUSH1 0x0 DUP1 REVERT JUMPDEST POP PUSH2 0x14F PUSH1 0x4 DUP1 CALLDATASIZE SUB DUP2 ADD SWAP1 PUSH2 0x14A SWAP2 SWAP1 PUSH2 0xFDC JUMP JUMPDEST PUSH2 0xA0F JUMP JUMPDEST STOP JUMPDEST CALLVALUE DUP1 ISZERO PUSH2 0x15D JUMPI PUSH1 0x0 DUP1 REVERT JUMPDEST POP PUSH2 0x178 PUSH1 0x4 DUP1 CALLDATASIZE SUB DUP2 ADD SWAP1 PUSH2 0x173 SWAP2 SWAP1 PUSH2 0xFDC JUMP JUMPDEST PUSH2 0xBAF JUMP JUMPDEST PUSH1 0x40 MLOAD PUSH2 0x185 SWAP2 SWAP1 PUSH2 0x1185 JUMP JUMPDEST PUSH1 0x40 MLOAD DUP1 SWAP2 SUB SWAP1 RETURN JUMPDEST CALLVALUE DUP1 ISZERO PUSH2 0x19A JUMPI PUSH1 0x0 DUP1 REVERT JUMPDEST POP PUSH2 0x1B5 PUSH1 0x4 DUP1 CALLDATASIZE SUB DUP2 ADD SWAP1 PUSH2 0x1B0 SWAP2 SWAP1 PUSH2 0x11A0 JUMP JUMPDEST PUSH2 0xBE8 JUMP JUMPDEST STOP JUMPDEST CALLVALUE DUP1 ISZERO PUSH2 0x1C3 JUMPI PUSH1 0x0 DUP1 REVERT JUMPDEST POP PUSH2 0x1DE PUSH1 0x4 DUP1 CALLDATASIZE SUB DUP2 ADD SWAP1 PUSH2 0x1D9 SWAP2 SWAP1 PUSH2 0xFDC JUMP JUMPDEST PUSH2 0xD7A JUMP JUMPDEST PUSH1 0x40 MLOAD PUSH2 0x1F6 SWAP13 SWAP12 SWAP11 SWAP10 SWAP9 SWAP8 SWAP7 SWAP6 SWAP5 SWAP4 SWAP3 SWAP2 SWAP1 PUSH2 0x11E0 JUMP JUMPDEST PUSH1 0x40 MLOAD DUP1 SWAP2 SUB SWAP1 RETURN JUMPDEST CALLVALUE DUP1 ISZERO PUSH2 0x20B JUMPI PUSH1 0x0 DUP1 REVERT JUMPDEST POP PUSH2 0x214 PUSH2 0xE34 JUMP JUMPDEST PUSH1 0x40 MLOAD PUSH2 0x221 SWAP2 SWAP1 PUSH2 0x1185 JUMP JUMPDEST PUSH1 0x40 MLOAD DUP1 SWAP2 SUB SWAP1 RETURN JUMPDEST PUSH2 0x244 PUSH1 0x4 DUP1 CALLDATASIZE SUB DUP2 ADD SWAP1 PUSH2 0x23F SWAP2 SWAP1 PUSH2 0xFDC JUMP JUMPDEST PUSH2 0xE3A JUMP JUMPDEST STOP JUMPDEST PUSH1 0x0 DUP1 PUSH1 0x0 DUP4 DUP2 MSTORE PUSH1 0x20 ADD SWAP1 DUP2 MSTORE PUSH1 0x20 ADD PUSH1 0x0 KECCAK256 SWAP1 POP DUP1 PUSH1 0xA ADD PUSH1 0x0 SWAP1 SLOAD SWAP1 PUSH2 0x100 EXP SWAP1 DIV PUSH1 0xFF AND PUSH2 0x2AD JUMPI PUSH1 0x40 MLOAD PUSH32 0x8C379A000000000000000000000000000000000000000000000000000000000 DUP2 MSTORE PUSH1 0x4 ADD PUSH2 0x2A4 SWAP1 PUSH2 0x12F7 JUMP JUMPDEST PUSH1 0x40 MLOAD DUP1 SWAP2 SUB SWAP1 REVERT JUMPDEST DUP1 PUSH1 0x9 ADD SLOAD TIMESTAMP LT PUSH2 0x2F3 JUMPI PUSH1 0x40 MLOAD PUSH32 0x8C379A000000000000000000000000000000000000000000000000000000000 DUP2 MSTORE PUSH1 0x4 ADD PUSH2 0x2EA SWAP1 PUSH2 0x1363 JUMP JUMPDEST PUSH1 0x40 MLOAD DUP1 SWAP2 SUB SWAP1 REVERT JUMPDEST PUSH1 0x0 PUSH2 0x2FE DUP4 PUSH2 0xBAF JUMP JUMPDEST SWAP1 POP DUP1 DUP3 PUSH1 0x7 ADD SLOAD LT ISZERO PUSH2 0x347 JUMPI PUSH1 0x40 MLOAD PUSH32 0x8C379A000000000000000000000000000000000000000000000000000000000 DUP2 MSTORE PUSH1 0x4 ADD PUSH2 0x33E SWAP1 PUSH2 0x13CF JUMP JUMPDEST PUSH1 0x40 MLOAD DUP1 SWAP2 SUB SWAP1 REVERT JUMPDEST DUP1 DUP3 PUSH1 0x7 ADD PUSH1 0x0 DUP3 DUP3 SLOAD PUSH2 0x35B SWAP2 SWAP1 PUSH2 0x141E JUMP JUMPDEST SWAP3 POP POP DUP2 SWAP1 SSTORE POP DUP2 PUSH1 0x1 ADD PUSH1 0x0 SWAP1 SLOAD SWAP1 PUSH2 0x100 EXP SWAP1 DIV PUSH20 0xFFFFFFFFFFFFFFFFFFFFFFFFFFFFFFFFFFFFFFFF AND PUSH20 0xFFFFFFFFFFFFFFFFFFFFFFFFFFFFFFFFFFFFFFFF AND PUSH2 0x8FC DUP3 SWAP1 DUP2 ISZERO MUL SWAP1 PUSH1 0x40 MLOAD PUSH1 0x0 PUSH1 0x40 MLOAD DUP1 DUP4 SUB DUP2 DUP6 DUP9 DUP9 CALL SWAP4 POP POP POP POP ISZERO DUP1 ISZERO PUSH2 0x3CC JUMPI RETURNDATASIZE PUSH1 0x0 DUP1 RETURNDATACOPY RETURNDATASIZE PUSH1 0x0 REVERT JUMPDEST POP DUP2 PUSH1 0x1 ADD PUSH1 0x0 SWAP1 SLOAD SWAP1 PUSH2 0x100 EXP SWAP1 DIV PUSH20 0xFFFFFFFFFFFFFFFFFFFFFFFFFFFFFFFFFFFFFFFF AND PUSH20 0xFFFFFFFFFFFFFFFFFFFFFFFFFFFFFFFFFFFFFFFF AND DUP3 PUSH1 0x0 ADD PUSH1 0x0 SWAP1 SLOAD SWAP1 PUSH2 0x100 EXP SWAP1 DIV PUSH20 0xFFFFFFFFFFFFFFFFFFFFFFFFFFFFFFFFFFFFFFFF AND PUSH20 0xFFFFFFFFFFFFFFFFFFFFFFFFFFFFFFFFFFFFFFFF AND DUP5 PUSH32 0x37A13DCF7266FE3681E46CA252EA4F79E8A76DA88AE9446F99242FBC014A6C39 DUP5 PUSH1 0x40 MLOAD PUSH2 0x473 SWAP2 SWAP1 PUSH2 0x1185 JUMP JUMPDEST PUSH1 0x40 MLOAD DUP1 SWAP2 SUB SWAP1 LOG4 PUSH1 0x0 DUP3 PUSH1 0x7 ADD SLOAD EQ DUP1 PUSH2 0x492 JUMPI POP DUP2 PUSH1 0x9 ADD SLOAD TIMESTAMP LT ISZERO JUMPDEST ISZERO PUSH2 0x4FF JUMPI PUSH1 0x0 DUP3 PUSH1 0xA ADD PUSH1 0x0 PUSH2 0x100 EXP DUP2 SLOAD DUP2 PUSH1 0xFF MUL NOT AND SWAP1 DUP4 ISZERO ISZERO MUL OR SWAP1 SSTORE POP PUSH1 0x1 DUP3 PUSH1 0xA ADD PUSH1 0x1 PUSH2 0x100 EXP DUP2 SLOAD DUP2 PUSH1 0xFF MUL NOT AND SWAP1 DUP4 ISZERO ISZERO MUL OR SWAP1 SSTORE POP DUP3 PUSH32 0x52867B6621C82BD178A9944B8C1F1F29ABA680811948FB9F8CFBD2FBD46108EE PUSH1 0x40 MLOAD PUSH1 0x40 MLOAD DUP1 SWAP2 SUB SWAP1 LOG2 JUMPDEST POP POP POP JUMP JUMPDEST PUSH1 0x0 DUP1 PUSH1 0x0 DUP1 PUSH1 0x0 DUP1 PUSH1 0x0 DUP1 PUSH1 0x0 DUP1 PUSH1 0x0 DUP12 DUP2 MSTORE PUSH1 0x20 ADD SWAP1 DUP2 MSTORE PUSH1 0x20 ADD PUSH1 0x0 KECCAK256 SWAP1 POP DUP1 PUSH1 0x0 ADD PUSH1 0x0 SWAP1 SLOAD SWAP1 PUSH2 0x100 EXP SWAP1 DIV PUSH20 0xFFFFFFFFFFFFFFFFFFFFFFFFFFFFFFFFFFFFFFFF AND DUP2 PUSH1 0x1 ADD PUSH1 0x0 SWAP1 SLOAD SWAP1 PUSH2 0x100 EXP SWAP1 DIV PUSH20 0xFFFFFFFFFFFFFFFFFFFFFFFFFFFFFFFFFFFFFFFF AND DUP3 PUSH1 0x2 ADD SLOAD DUP4 PUSH1 0x3 ADD SLOAD DUP5 PUSH1 0x4 ADD SLOAD DUP6 PUSH1 0x7 ADD SLOAD DUP7 PUSH1 0xA ADD PUSH1 0x0 SWAP1 SLOAD SWAP1 PUSH2 0x100 EXP SWAP1 DIV PUSH1 0xFF AND DUP8 PUSH1 0xA ADD PUSH1 0x1 SWAP1 SLOAD SWAP1 PUSH2 0x100 EXP SWAP1 DIV PUSH1 0xFF AND SWAP9 POP SWAP9 POP SWAP9 POP SWAP9 POP SWAP9 POP SWAP9 POP SWAP9 POP SWAP9 POP POP SWAP2 SWAP4 SWAP6 SWAP8 POP SWAP2 SWAP4 SWAP6 SWAP8 JUMP JUMPDEST PUSH1 0x0 DUP1 PUSH20 0xFFFFFFFFFFFFFFFFFFFFFFFFFFFFFFFFFFFFFFFF AND DUP6 PUSH20 0xFFFFFFFFFFFFFFFFFFFFFFFFFFFFFFFFFFFFFFFF AND SUB PUSH2 0x634 JUMPI PUSH1 0x40 MLOAD PUSH32 0x8C379A000000000000000000000000000000000000000000000000000000000 DUP2 MSTORE PUSH1 0x4 ADD PUSH2 0x62B SWAP1 PUSH2 0x149E JUMP JUMPDEST PUSH1 0x40 MLOAD DUP1 SWAP2 SUB SWAP1 REVERT JUMPDEST PUSH1 0x0 DUP5 GT PUSH2 0x677 JUMPI PUSH1 0x40 MLOAD PUSH32 0x8C379A000000000000000000000000000000000000000000000000000000000 DUP2 MSTORE PUSH1 0x4 ADD PUSH2 0x66E SWAP1 PUSH2 0x150A JUMP JUMPDEST PUSH1 0x40 MLOAD DUP1 SWAP2 SUB SWAP1 REVERT JUMPDEST PUSH1 0x0 DUP4 GT PUSH2 0x6BA JUMPI PUSH1 0x40 MLOAD PUSH32 0x8C379A000000000000000000000000000000000000000000000000000000000 DUP2 MSTORE PUSH1 0x4 ADD PUSH2 0x6B1 SWAP1 PUSH2 0x1576 JUMP JUMPDEST PUSH1 0x40 MLOAD DUP1 SWAP2 SUB SWAP1 REVERT JUMPDEST PUSH1 0x0 DUP3 GT PUSH2 0x6FD JUMPI PUSH1 0x40 MLOAD PUSH32 0x8C379A000000000000000000000000000000000000000000000000000000000 DUP2 MSTORE PUSH1 0x4 ADD PUSH2 0x6F4 SWAP1 PUSH2 0x15E2 JUMP JUMPDEST PUSH1 0x40 MLOAD DUP1 SWAP2 SUB SWAP1 REVERT JUMPDEST PUSH1 0x0 DUP3 DUP5 DUP7 PUSH2 0x70C SWAP2 SWAP1 PUSH2 0x1602 JUMP JUMPDEST PUSH2 0x716 SWAP2 SWAP1 PUSH2 0x1602 JUMP JUMPDEST SWAP1 POP DUP1 CALLVALUE LT ISZERO PUSH2 0x75B JUMPI PUSH1 0x40 MLOAD PUSH32 0x8C379A000000000000000000000000000000000000000000000000000000000 DUP2 MSTORE PUSH1 0x4 ADD PUSH2 0x752 SWAP1 PUSH2 0x13CF JUMP JUMPDEST PUSH1 0x40 MLOAD DUP1 SWAP2 SUB SWAP1 REVERT JUMPDEST PUSH1 0x0 PUSH1 0x1 PUSH1 0x0 DUP2 SLOAD DUP1 SWAP3 SWAP2 SWAP1 PUSH2 0x770 SWAP1 PUSH2 0x1644 JUMP JUMPDEST SWAP2 SWAP1 POP SSTORE SWAP1 POP PUSH1 0x40 MLOAD DUP1 PUSH2 0x180 ADD PUSH1 0x40 MSTORE DUP1 CALLER PUSH20 0xFFFFFFFFFFFFFFFFFFFFFFFFFFFFFFFFFFFFFFFF AND DUP2 MSTORE PUSH1 0x20 ADD DUP9 PUSH20 0xFFFFFFFFFFFFFFFFFFFFFFFFFFFFFFFFFFFFFFFF AND DUP2 MSTORE PUSH1 0x20 ADD DUP8 DUP2 MSTORE PUSH1 0x20 ADD PUSH1 0x0 DUP2 MSTORE PUSH1 0x20 ADD DUP7 DUP2 MSTORE PUSH1 0x20 ADD DUP6 DUP2 MSTORE PUSH1 0x20 ADD DUP4 DUP2 MSTORE PUSH1 0x20 ADD CALLVALUE DUP2 MSTORE PUSH1 0x20 ADD TIMESTAMP DUP2 MSTORE PUSH1 0x20 ADD PUSH3 0x278D00 DUP7 PUSH2 0x7F4 SWAP2 SWAP1 PUSH2 0x1602 JUMP JUMPDEST TIMESTAMP PUSH2 0x7FF SWAP2 SWAP1 PUSH2 0x168C JUMP JUMPDEST DUP2 MSTORE PUSH1 0x20 ADD PUSH1 0x1 ISZERO ISZERO DUP2 MSTORE PUSH1 0x20 ADD PUSH1 0x0 ISZERO ISZERO DUP2 MSTORE POP PUSH1 0x0 DUP1 DUP4 DUP2 MSTORE PUSH1 0x20 ADD SWAP1 DUP2 MSTORE PUSH1 0x20 ADD PUSH1 0x0 KECCAK256 PUSH1 0x0 DUP3 ADD MLOAD DUP2 PUSH1 0x0 ADD PUSH1 0x0 PUSH2 0x100 EXP DUP2 SLOAD DUP2 PUSH20 0xFFFFFFFFFFFFFFFFFFFFFFFFFFFFFFFFFFFFFFFF MUL NOT AND SWAP1 DUP4 PUSH20 0xFFFFFFFFFFFFFFFFFFFFFFFFFFFFFFFFFFFFFFFF AND MUL OR SWAP1 SSTORE POP PUSH1 0x20 DUP3 ADD MLOAD DUP2 PUSH1 0x1 ADD PUSH1 0x0 PUSH2 0x100 EXP DUP2 SLOAD DUP2 PUSH20 0xFFFFFFFFFFFFFFFFFFFFFFFFFFFFFFFFFFFFFFFF MUL NOT AND SWAP1 DUP4 PUSH20 0xFFFFFFFFFFFFFFFFFFFFFFFFFFFFFFFFFFFFFFFF AND MUL OR SWAP1 SSTORE POP PUSH1 0x40 DUP3 ADD MLOAD DUP2 PUSH1 0x2 ADD SSTORE PUSH1 0x60 DUP3 ADD MLOAD DUP2 PUSH1 0x3 ADD SSTORE PUSH1 0x80 DUP3 ADD MLOAD DUP2 PUSH1 0x4 ADD SSTORE PUSH1 0xA0 DUP3 ADD MLOAD DUP2 PUSH1 0x5 ADD SSTORE PUSH1 0xC0 DUP3 ADD MLOAD DUP2 PUSH1 0x6 ADD SSTORE PUSH1 0xE0 DUP3 ADD MLOAD DUP2 PUSH1 0x7 ADD SSTORE PUSH2 0x100 DUP3 ADD MLOAD DUP2 PUSH1 0x8 ADD SSTORE PUSH2 0x120 DUP3 ADD MLOAD DUP2 PUSH1 0x9 ADD SSTORE PUSH2 0x140 DUP3 ADD MLOAD DUP2 PUSH1 0xA ADD PUSH1 0x0 PUSH2 0x100 EXP DUP2 SLOAD DUP2 PUSH1 0xFF MUL NOT AND SWAP1 DUP4 ISZERO ISZERO MUL OR SWAP1 SSTORE POP PUSH2 0x160 DUP3 ADD MLOAD DUP2 PUSH1 0xA ADD PUSH1 0x1 PUSH2 0x100 EXP DUP2 SLOAD DUP2 PUSH1 0xFF MUL NOT AND SWAP1 DUP4 ISZERO ISZERO MUL OR SWAP1 SSTORE POP SWAP1 POP POP DUP7 PUSH20 0xFFFFFFFFFFFFFFFFFFFFFFFFFFFFFFFFFFFFFFFF AND CALLER PUSH20 0xFFFFFFFFFFFFFFFFFFFFFFFFFFFFFFFFFFFFFFFF AND DUP3 PUSH32 0x3C1867BFF257696179F61D7C10DE569FF1DF9E3B93EEA435163E124B264843FA DUP10 DUP7 PUSH1 0x40 MLOAD PUSH2 0x9AB SWAP3 SWAP2 SWAP1 PUSH2 0x16C0 JUMP JUMPDEST PUSH1 0x40 MLOAD DUP1 SWAP2 SUB SWAP1 LOG4 CALLER PUSH20 0xFFFFFFFFFFFFFFFFFFFFFFFFFFFFFFFFFFFFFFFF AND DUP2 PUSH32 0x9A57BBB234B70FC26FBB5C8D65F00C0BBA23B19C4A7BB1AEDB26C7A04269F747 CALLVALUE PUSH1 0x40 MLOAD PUSH2 0x9FA SWAP2 SWAP1 PUSH2 0x1185 JUMP JUMPDEST PUSH1 0x40 MLOAD DUP1 SWAP2 SUB SWAP1 LOG3 DUP1 SWAP3 POP POP POP SWAP5 SWAP4 POP POP POP POP JUMP JUMPDEST PUSH1 0x0 DUP1 PUSH1 0x0 DUP4 DUP2 MSTORE PUSH1 0x20 ADD SWAP1 DUP2 MSTORE PUSH1 0x20 ADD PUSH1 0x0 KECCAK256 SWAP1 POP DUP1 PUSH1 0x0 ADD PUSH1 0x0 SWAP1 SLOAD SWAP1 PUSH2 0x100 EXP SWAP1 DIV PUSH20 0xFFFFFFFFFFFFFFFFFFFFFFFFFFFFFFFFFFFFFFFF AND PUSH20 0xFFFFFFFFFFFFFFFFFFFFFFFFFFFFFFFFFFFFFFFF AND CALLER PUSH20 0xFFFFFFFFFFFFFFFFFFFFFFFFFFFFFFFFFFFFFFFF AND EQ PUSH2 0xAB7 JUMPI PUSH1 0x40 MLOAD PUSH32 0x8C379A000000000000000000000000000000000000000000000000000000000 DUP2 MSTORE PUSH1 0x4 ADD PUSH2 0xAAE SWAP1 PUSH2 0x1735 JUMP JUMPDEST PUSH1 0x40 MLOAD DUP1 SWAP2 SUB SWAP1 REVERT JUMPDEST DUP1 PUSH1 0xA ADD PUSH1 0x0 SWAP1 SLOAD SWAP1 PUSH2 0x100 EXP SWAP1 DIV PUSH1 0xFF AND ISZERO PUSH2 0xB09 JUMPI PUSH1 0x40 MLOAD PUSH32 0x8C379A000000000000000000000000000000000000000000000000000000000 DUP2 MSTORE PUSH1 0x4 ADD PUSH2 0xB00 SWAP1 PUSH2 0x17A1 JUMP JUMPDEST PUSH1 0x40 MLOAD DUP1 SWAP2 SUB SWAP1 REVERT JUMPDEST PUSH1 0x0 DUP2 PUSH1 0x7 ADD SLOAD GT PUSH2 0xB50 JUMPI PUSH1 0x40 MLOAD PUSH32 0x8C379A000000000000000000000000000000000000000000000000000000000 DUP2 MSTORE PUSH1 0x4 ADD PUSH2 0xB47 SWAP1 PUSH2 0x180D JUMP JUMPDEST PUSH1 0x40 MLOAD DUP1 SWAP2 SUB SWAP1 REVERT JUMPDEST PUSH1 0x0 DUP2 PUSH1 0x7 ADD SLOAD SWAP1 POP PUSH1 0x0 DUP3 PUSH1 0x7 ADD DUP2 SWAP1 SSTORE POP CALLER PUSH20 0xFFFFFFFFFFFFFFFFFFFFFFFFFFFFFFFFFFFFFFFF AND PUSH2 0x8FC DUP3 SWAP1 DUP2 ISZERO MUL SWAP1 PUSH1 0x40 MLOAD PUSH1 0x0 PUSH1 0x40 MLOAD DUP1 DUP4 SUB DUP2 DUP6 DUP9 DUP9 CALL SWAP4 POP POP POP POP ISZERO DUP1 ISZERO PUSH2 0xBA9 JUMPI RETURNDATASIZE PUSH1 0x0 DUP1 RETURNDATACOPY RETURNDATASIZE PUSH1 0x0 REVERT JUMPDEST POP POP POP POP JUMP JUMPDEST PUSH1 0x0 DUP1 PUSH1 0x0 DUP1 DUP5 DUP2 MSTORE PUSH1 0x20 ADD SWAP1 DUP2 MSTORE PUSH1 0x20 ADD PUSH1 0x0 KECCAK256 SWAP1 POP PUSH1 0x0 DUP2 PUSH1 0x4 ADD SLOAD DUP3 PUSH1 0x2 ADD SLOAD PUSH2 0xBDC SWAP2 SWAP1 PUSH2 0x1602 JUMP JUMPDEST SWAP1 POP DUP1 SWAP3 POP POP POP SWAP2 SWAP1 POP JUMP JUMPDEST PUSH1 0x0 DUP1 PUSH1 0x0 DUP5 DUP2 MSTORE PUSH1 0x20 ADD SWAP1 DUP2 MSTORE PUSH1 0x20 ADD PUSH1 0x0 KECCAK256 SWAP1 POP DUP1 PUSH1 0xA ADD PUSH1 0x0 SWAP1 SLOAD SWAP1 PUSH2 0x100 EXP SWAP1 DIV PUSH1 0xFF AND PUSH2 0xC4F JUMPI PUSH1 0x40 MLOAD PUSH32 0x8C379A000000000000000000000000000000000000000000000000000000000 DUP2 MSTORE PUSH1 0x4 ADD PUSH2 0xC46 SWAP1 PUSH2 0x12F7 JUMP JUMPDEST PUSH1 0x40 MLOAD DUP1 SWAP2 SUB SWAP1 REVERT JUMPDEST DUP1 PUSH1 0x1 ADD PUSH1 0x0 SWAP1 SLOAD SWAP1 PUSH2 0x100 EXP SWAP1 DIV PUSH20 0xFFFFFFFFFFFFFFFFFFFFFFFFFFFFFFFFFFFFFFFF AND PUSH20 0xFFFFFFFFFFFFFFFFFFFFFFFFFFFFFFFFFFFFFFFF AND CALLER PUSH20 0xFFFFFFFFFFFFFFFFFFFFFFFFFFFFFFFFFFFFFFFF AND EQ PUSH2 0xCE1 JUMPI PUSH1 0x40 MLOAD PUSH32 0x8C379A000000000000000000000000000000000000000000000000000000000 DUP2 MSTORE PUSH1 0x4 ADD PUSH2 0xCD8 SWAP1 PUSH2 0x1879 JUMP JUMPDEST PUSH1 0x40 MLOAD DUP1 SWAP2 SUB SWAP1 REVERT JUMPDEST DUP1 PUSH1 0x2 ADD SLOAD DUP3 GT ISZERO PUSH2 0xD28 JUMPI PUSH1 0x40 MLOAD PUSH32 0x8C379A000000000000000000000000000000000000000000000000000000000 DUP2 MSTORE PUSH1 0x4 ADD PUSH2 0xD1F SWAP1 PUSH2 0x18E5 JUMP JUMPDEST PUSH1 0x40 MLOAD DUP1 SWAP2 SUB SWAP1 REVERT JUMPDEST PUSH1 0x0 DUP2 PUSH1 0x3 ADD SLOAD SWAP1 POP DUP3 DUP3 PUSH1 0x3 ADD DUP2 SWAP1 SSTORE POP DUP4 PUSH32 0x8FF41D718BC138FBD8310708A964E642953F0258FD5FFB02020754B0A3A5AD43 DUP3 DUP6 PUSH1 0x40 MLOAD PUSH2 0xD6C SWAP3 SWAP2 SWAP1 PUSH2 0x16C0 JUMP JUMPDEST PUSH1 0x40 MLOAD DUP1 SWAP2 SUB SWAP1 LOG2 POP POP POP POP JUMP JUMPDEST PUSH1 0x0 PUSH1 0x20 MSTORE DUP1 PUSH1 0x0 MSTORE PUSH1 0x40 PUSH1 0x0 KECCAK256 PUSH1 0x0 SWAP2 POP SWAP1 POP DUP1 PUSH1 0x0 ADD PUSH1 0x0 SWAP1 SLOAD SWAP1 PUSH2 0x100 EXP SWAP1 DIV PUSH20 0xFFFFFFFFFFFFFFFFFFFFFFFFFFFFFFFFFFFFFFFF AND SWAP1 DUP1 PUSH1 0x1 ADD PUSH1 0x0 SWAP1 SLOAD SWAP1 PUSH2 0x100 EXP SWAP1 DIV PUSH20 0xFFFFFFFFFFFFFFFFFFFFFFFFFFFFFFFFFFFFFFFF AND SWAP1 DUP1 PUSH1 0x2 ADD SLOAD SWAP1 DUP1 PUSH1 0x3 ADD SLOAD SWAP1 DUP1 PUSH1 0x4 ADD SLOAD SWAP1 DUP1 PUSH1 0x5 ADD SLOAD SWAP1 DUP1 PUSH1 0x6 ADD SLOAD SWAP1 DUP1 PUSH1 0x7 ADD SLOAD SWAP1 DUP1 PUSH1 0x8 ADD SLOAD SWAP1 DUP1 PUSH1 0x9 ADD SLOAD SWAP1 DUP1 PUSH1 0xA ADD PUSH1 0x0 SWAP1 SLOAD SWAP1 PUSH2 0x100 EXP SWAP1 DIV PUSH1 0xFF AND SWAP1 DUP1 PUSH1 0xA ADD PUSH1 0x1 SWAP1 SLOAD SWAP1 PUSH2 0x100 EXP SWAP1 DIV PUSH1 0xFF AND SWAP1 POP DUP13 JUMP JUMPDEST PUSH1 0x1 SLOAD DUP2 JUMP JUMPDEST PUSH1 0x0 DUP1 PUSH1 0x0 DUP4 DUP2 MSTORE PUSH1 0x20 ADD SWAP1 DUP2 MSTORE PUSH1 0x20 ADD PUSH1 0x0 KECCAK256 SWAP1 POP DUP1 PUSH1 0xA ADD PUSH1 0x0 SWAP1 SLOAD SWAP1 PUSH2 0x100 EXP SWAP1 DIV PUSH1 0xFF AND PUSH2 0xEA1 JUMPI PUSH1 0x40 MLOAD PUSH32 0x8C379A000000000000000000000000000000000000000000000000000000000 DUP2 MSTORE PUSH1 0x4 ADD PUSH2 0xE98 SWAP1 PUSH2 0x12F7 JUMP JUMPDEST PUSH1 0x40 MLOAD DUP1 SWAP2 SUB SWAP1 REVERT JUMPDEST DUP1 PUSH1 0x0 ADD PUSH1 0x0 SWAP1 SLOAD SWAP1 PUSH2 0x100 EXP SWAP1 DIV PUSH20 0xFFFFFFFFFFFFFFFFFFFFFFFFFFFFFFFFFFFFFFFF AND PUSH20 0xFFFFFFFFFFFFFFFFFFFFFFFFFFFFFFFFFFFFFFFF AND CALLER PUSH20 0xFFFFFFFFFFFFFFFFFFFFFFFFFFFFFFFFFFFFFFFF AND EQ PUSH2 0xF33 JUMPI PUSH1 0x40 MLOAD PUSH32 0x8C379A000000000000000000000000000000000000000000000000000000000 DUP2 MSTORE PUSH1 0x4 ADD PUSH2 0xF2A SWAP1 PUSH2 0x1951 JUMP JUMPDEST PUSH1 0x40 MLOAD DUP1 SWAP2 SUB SWAP1 REVERT JUMPDEST CALLVALUE DUP2 PUSH1 0x7 ADD PUSH1 0x0 DUP3 DUP3 SLOAD PUSH2 0xF47 SWAP2 SWAP1 PUSH2 0x168C JUMP JUMPDEST SWAP3 POP POP DUP2 SWAP1 SSTORE POP CALLER PUSH20 0xFFFFFFFFFFFFFFFFFFFFFFFFFFFFFFFFFFFFFFFF AND DUP3 PUSH32 0x9A57BBB234B70FC26FBB5C8D65F00C0BBA23B19C4A7BB1AEDB26C7A04269F747 CALLVALUE PUSH1 0x40 MLOAD PUSH2 0xF95 SWAP2 SWAP1 PUSH2 0x1185 JUMP JUMPDEST PUSH1 0x40 MLOAD DUP1 SWAP2 SUB SWAP1 LOG3 POP POP JUMP JUMPDEST PUSH1 0x0 DUP1 REVERT JUMPDEST PUSH1 0x0 DUP2 SWAP1 POP SWAP2 SWAP1 POP JUMP JUMPDEST PUSH2 0xFB9 DUP2 PUSH2 0xFA6 JUMP JUMPDEST DUP2 EQ PUSH2 0xFC4 JUMPI PUSH1 0x0 DUP1 REVERT JUMPDEST POP JUMP JUMPDEST PUSH1 0x0 DUP2 CALLDATALOAD SWAP1 POP PUSH2 0xFD6 DUP2 PUSH2 0xFB0 JUMP JUMPDEST SWAP3 SWAP2 POP POP JUMP JUMPDEST PUSH1 0x0 PUSH1 0x20 DUP3 DUP5 SUB SLT ISZERO PUSH2 0xFF2 JUMPI PUSH2 0xFF1 PUSH2 0xFA1 JUMP JUMPDEST JUMPDEST PUSH1 0x0 PUSH2 0x1000 DUP5 DUP3 DUP6 ADD PUSH2 0xFC7 JUMP JUMPDEST SWAP2 POP POP SWAP3 SWAP2 POP POP JUMP JUMPDEST PUSH1 0x0 PUSH20 0xFFFFFFFFFFFFFFFFFFFFFFFFFFFFFFFFFFFFFFFF DUP3 AND SWAP1 POP SWAP2 SWAP1 POP JUMP JUMPDEST PUSH1 0x0 PUSH2 0x1034 DUP3 PUSH2 0x1009 JUMP JUMPDEST SWAP1 POP SWAP2 SWAP1 POP JUMP JUMPDEST PUSH2 0x1044 DUP2 PUSH2 0x1029 JUMP JUMPDEST DUP3 MSTORE POP POP JUMP JUMPDEST PUSH2 0x1053 DUP2 PUSH2 0xFA6 JUMP JUMPDEST DUP3 MSTORE POP POP JUMP JUMPDEST PUSH1 0x0 DUP2 ISZERO ISZERO SWAP1 POP SWAP2 SWAP1 POP JUMP JUMPDEST PUSH2 0x106E DUP2 PUSH2 0x1059 JUMP JUMPDEST DUP3 MSTORE POP POP JUMP JUMPDEST PUSH1 0x0 PUSH2 0x100 DUP3 ADD SWAP1 POP PUSH2 0x108A PUSH1 0x0 DUP4 ADD DUP12 PUSH2 0x103B JUMP JUMPDEST PUSH2 0x1097 PUSH1 0x20 DUP4 ADD DUP11 PUSH2 0x103B JUMP JUMPDEST PUSH2 0x10A4 PUSH1 0x40 DUP4 ADD DUP10 PUSH2 0x104A JUMP JUMPDEST PUSH2 0x10B1 PUSH1 0x60 DUP4 ADD DUP9 PUSH2 0x104A JUMP JUMPDEST PUSH2 0x10BE PUSH1 0x80 DUP4 ADD DUP8 PUSH2 0x104A JUMP JUMPDEST PUSH2 0x10CB PUSH1 0xA0 DUP4 ADD DUP7 PUSH2 0x104A JUMP JUMPDEST PUSH2 0x10D8 PUSH1 0xC0 DUP4 ADD DUP6 PUSH2 0x1065 JUMP JUMPDEST PUSH2 0x10E5 PUSH1 0xE0 DUP4 ADD DUP5 PUSH2 0x1065 JUMP JUMPDEST SWAP10 SWAP9 POP POP POP POP POP POP POP POP POP JUMP JUMPDEST PUSH2 0x10FB DUP2 PUSH2 0x1029 JUMP JUMPDEST DUP2 EQ PUSH2 0x1106 JUMPI PUSH1 0x0 DUP1 REVERT JUMPDEST POP JUMP JUMPDEST PUSH1 0x0 DUP2 CALLDATALOAD SWAP1 POP PUSH2 0x1118 DUP2 PUSH2 0x10F2 JUMP JUMPDEST SWAP3 SWAP2 POP POP JUMP JUMPDEST PUSH1 0x0 DUP1 PUSH1 0x0 DUP1 PUSH1 0x80 DUP6 DUP8 SUB SLT ISZERO PUSH2 0x1138 JUMPI PUSH2 0x1137 PUSH2 0xFA1 JUMP JUMPDEST JUMPDEST PUSH1 0x0 PUSH2 0x1146 DUP8 DUP3 DUP9 ADD PUSH2 0x1109 JUMP JUMPDEST SWAP5 POP POP PUSH1 0x20 PUSH2 0x1157 DUP8 DUP3 DUP9 ADD PUSH2 0xFC7 JUMP JUMPDEST SWAP4 POP POP PUSH1 0x40 PUSH2 0x1168 DUP8 DUP3 DUP9 ADD PUSH2 0xFC7 JUMP JUMPDEST SWAP3 POP POP PUSH1 0x60 PUSH2 0x1179 DUP8 DUP3 DUP9 ADD PUSH2 0xFC7 JUMP JUMPDEST SWAP2 POP POP SWAP3 SWAP6 SWAP2 SWAP5 POP SWAP3 POP JUMP JUMPDEST PUSH1 0x0 PUSH1 0x20 DUP3 ADD SWAP1 POP PUSH2 0x119A PUSH1 0x0 DUP4 ADD DUP5 PUSH2 0x104A JUMP JUMPDEST SWAP3 SWAP2 POP POP JUMP JUMPDEST PUSH1 0x0 DUP1 PUSH1 0x40 DUP4 DUP6 SUB SLT ISZERO PUSH2 0x11B7 JUMPI PUSH2 0x11B6 PUSH2 0xFA1 JUMP JUMPDEST JUMPDEST PUSH1 0x0 PUSH2 0x11C5 DUP6 DUP3 DUP7 ADD PUSH2 0xFC7 JUMP JUMPDEST SWAP3 POP POP PUSH1 0x20 PUSH2 0x11D6 DUP6 DUP3 DUP7 ADD PUSH2 0xFC7 JUMP JUMPDEST SWAP2 POP POP SWAP3 POP SWAP3 SWAP1 POP JUMP JUMPDEST PUSH1 0x0 PUSH2 0x180 DUP3 ADD SWAP1 POP PUSH2 0x11F6 PUSH1 0x0 DUP4 ADD DUP16 PUSH2 0x103B JUMP JUMPDEST PUSH2 0x1203 PUSH1 0x20 DUP4 ADD DUP15 PUSH2 0x103B JUMP JUMPDEST PUSH2 0x1210 PUSH1 0x40 DUP4 ADD DUP14 PUSH2 0x104A JUMP JUMPDEST PUSH2 0x121D PUSH1 0x60 DUP4 ADD DUP13 PUSH2 0x104A JUMP JUMPDEST PUSH2 0x122A PUSH1 0x80 DUP4 ADD DUP12 PUSH2 0x104A JUMP JUMPDEST PUSH2 0x1237 PUSH1 0xA0 DUP4 ADD DUP11 PUSH2 0x104A JUMP JUMPDEST PUSH2 0x1244 PUSH1 0xC0 DUP4 ADD DUP10 PUSH2 0x104A JUMP JUMPDEST PUSH2 0x1251 PUSH1 0xE0 DUP4 ADD DUP9 PUSH2 0x104A JUMP JUMPDEST PUSH2 0x125F PUSH2 0x100 DUP4 ADD DUP8 PUSH2 0x104A JUMP JUMPDEST PUSH2 0x126D PUSH2 0x120 DUP4 ADD DUP7 PUSH2 0x104A JUMP JUMPDEST PUSH2 0x127B PUSH2 0x140 DUP4 ADD DUP6 PUSH2 0x1065 JUMP JUMPDEST PUSH2 0x1289 PUSH2 0x160 DUP4 ADD DUP5 PUSH2 0x1065 JUMP JUMPDEST SWAP14 SWAP13 POP POP POP POP POP POP POP POP POP POP POP POP POP JUMP JUMPDEST PUSH1 0x0 DUP3 DUP3 MSTORE PUSH1 0x20 DUP3 ADD SWAP1 POP SWAP3 SWAP2 POP POP JUMP JUMPDEST PUSH32 0x41677265656D656E74206E6F7420616374697665000000000000000000000000 PUSH1 0x0 DUP3 ADD MSTORE POP JUMP JUMPDEST PUSH1 0x0 PUSH2 0x12E1 PUSH1 0x14 DUP4 PUSH2 0x129A JUMP JUMPDEST SWAP2 POP PUSH2 0x12EC DUP3 PUSH2 0x12AB JUMP JUMPDEST PUSH1 0x20 DUP3 ADD SWAP1 POP SWAP2 SWAP1 POP JUMP JUMPDEST PUSH1 0x0 PUSH1 0x20 DUP3 ADD SWAP1 POP DUP2 DUP2 SUB PUSH1 0x0 DUP4 ADD MSTORE PUSH2 0x1310 DUP2 PUSH2 0x12D4 JUMP JUMPDEST SWAP1 POP SWAP2 SWAP1 POP JUMP JUMPDEST PUSH32 0x41677265656D656E742065787069726564000000000000000000000000000000 PUSH1 0x0 DUP3 ADD MSTORE POP JUMP JUMPDEST PUSH1 0x0 PUSH2 0x134D PUSH1 0x11 DUP4 PUSH2 0x129A JUMP JUMPDEST SWAP2 POP PUSH2 0x1358 DUP3 PUSH2 0x1317 JUMP JUMPDEST PUSH1 0x20 DUP3 ADD SWAP1 POP SWAP2 SWAP1 POP JUMP JUMPDEST PUSH1 0x0 PUSH1 0x20 DUP3 ADD SWAP1 POP DUP2 DUP2 SUB PUSH1 0x0 DUP4 ADD MSTORE PUSH2 0x137C DUP2 PUSH2 0x1340 JUMP JUMPDEST SWAP1 POP SWAP2 SWAP1 POP JUMP JUMPDEST PUSH32 0x496E73756666696369656E7420657363726F7700000000000000000000000000 PUSH1 0x0 DUP3 ADD MSTORE POP JUMP JUMPDEST PUSH1 0x0 PUSH2 0x13B9 PUSH1 0x13 DUP4 PUSH2 0x129A JUMP JUMPDEST SWAP2 POP PUSH2 0x13C4 DUP3 PUSH2 0x1383 JUMP JUMPDEST PUSH1 0x20 DUP3 ADD SWAP1 POP SWAP2 SWAP1 POP JUMP JUMPDEST PUSH1 0x0 PUSH1 0x20 DUP3 ADD SWAP1 POP DUP2 DUP2 SUB PUSH1 0x0 DUP4 ADD MSTORE PUSH2 0x13E8 DUP2 PUSH2 0x13AC JUMP JUMPDEST SWAP1 POP SWAP2 SWAP1 POP JUMP JUMPDEST PUSH32 0x4E487B7100000000000000000000000000000000000000000000000000000000 PUSH1 0x0 MSTORE PUSH1 0x11 PUSH1 0x4 MSTORE PUSH1 0x24 PUSH1 0x0 REVERT JUMPDEST PUSH1 0x0 PUSH2 0x1429 DUP3 PUSH2 0xFA6 JUMP JUMPDEST SWAP2 POP PUSH2 0x1434 DUP4 PUSH2 0xFA6 JUMP JUMPDEST SWAP3 POP DUP3 DUP3 SUB SWAP1 POP DUP2 DUP2 GT ISZERO PUSH2 0x144C JUMPI PUSH2 0x144B PUSH2 0x13EF JUMP JUMPDEST JUMPDEST SWAP3 SWAP2 POP POP JUMP JUMPDEST PUSH32 0x496E76616C69642070726F766964657200000000000000000000000000000000 PUSH1 0x0 DUP3 ADD MSTORE POP JUMP JUMPDEST PUSH1 0x0 PUSH2 0x1488 PUSH1 0x10 DUP4 PUSH2 0x129A JUMP JUMPDEST SWAP2 POP PUSH2 0x1493 DUP3 PUSH2 0x1452 JUMP JUMPDEST PUSH1 0x20 DUP3 ADD SWAP1 POP SWAP2 SWAP1 POP JUMP JUMPDEST PUSH1 0x0 PUSH1 0x20 DUP3 ADD SWAP1 POP DUP2 DUP2 SUB PUSH1 0x0 DUP4 ADD MSTORE PUSH2 0x14B7 DUP2 PUSH2 0x147B JUMP JUMPDEST SWAP1 POP SWAP2 SWAP1 POP JUMP JUMPDEST PUSH32 0x416C6C6F6361746564204742206D757374206265203E20300000000000000000 PUSH1 0x0 DUP3 ADD MSTORE POP JUMP JUMPDEST PUSH1 0x0 PUSH2 0x14F4 PUSH1 0x18 DUP4 PUSH2 0x129A JUMP JUMPDEST SWAP2 POP PUSH2 0x14FF DUP3 PUSH2 0x14BE JUMP JUMPDEST PUSH1 0x20 DUP3 ADD SWAP1 POP SWAP2 SWAP1 POP JUMP JUMPDEST PUSH1 0x0 PUSH1 0x20 DUP3 ADD SWAP1 POP DUP2 DUP2 SUB PUSH1 0x0 DUP4 ADD MSTORE PUSH2 0x1523 DUP2 PUSH2 0x14E7 JUMP JUMPDEST SWAP1 POP SWAP2 SWAP1 POP JUMP JUMPDEST PUSH32 0x5072696365206D757374206265203E2030000000000000000000000000000000 PUSH1 0x0 DUP3 ADD MSTORE POP JUMP JUMPDEST PUSH1 0x0 PUSH2 0x1560 PUSH1 0x11 DUP4 PUSH2 0x129A JUMP JUMPDEST SWAP2 POP PUSH2 0x156B DUP3 PUSH2 0x152A JUMP JUMPDEST PUSH1 0x20 DUP3 ADD SWAP1 POP SWAP2 SWAP1 POP JUMP JUMPDEST PUSH1 0x0 PUSH1 0x20 DUP3 ADD SWAP1 POP DUP2 DUP2 SUB PUSH1 0x0 DUP4 ADD MSTORE PUSH2 0x158F DUP2 PUSH2 0x1553 JUMP JUMPDEST SWAP1 POP SWAP2 SWAP1 POP JUMP JUMPDEST PUSH32 0x4475726174696F6E206D757374206265203E2030000000000000000000000000 PUSH1 0x0 DUP3 ADD MSTORE POP JUMP JUMPDEST PUSH1 0x0 PUSH2 0x15CC PUSH1 0x14 DUP4 PUSH2 0x129A JUMP JUMPDEST SWAP2 POP PUSH2 0x15D7 DUP3 PUSH2 0x1596 JUMP JUMPDEST PUSH1 0x20 DUP3 ADD SWAP1 POP SWAP2 SWAP1 POP JUMP JUMPDEST PUSH1 0x0 PUSH1 0x20 DUP3 ADD SWAP1 POP DUP2 DUP2 SUB PUSH1 0x0 DUP4 ADD MSTORE PUSH2 0x15FB DUP2 PUSH2 0x15BF JUMP JUMPDEST SWAP1 POP SWAP2 SWAP1 POP JUMP JUMPDEST PUSH1 0x0 PUSH2 0x160D DUP3 PUSH2 0xFA6 JUMP JUMPDEST SWAP2 POP PUSH2 0x1618 DUP4 PUSH2 0xFA6 JUMP JUMPDEST SWAP3 POP DUP3 DUP3 MUL PUSH2 0x1626 DUP2 PUSH2 0xFA6 JUMP JUMPDEST SWAP2 POP DUP3 DUP3 DIV DUP5 EQ DUP4 ISZERO OR PUSH2 0x163D JUMPI PUSH2 0x163C PUSH2 0x13EF JUMP JUMPDEST JUMPDEST POP SWAP3 SWAP2 POP POP JUMP JUMPDEST PUSH1 0x0 PUSH2 0x164F DUP3 PUSH2 0xFA6 JUMP JUMPDEST SWAP2 POP PUSH32 0xFFFFFFFFFFFFFFFFFFFFFFFFFFFFFFFFFFFFFFFFFFFFFFFFFFFFFFFFFFFFFFFF DUP3 SUB PUSH2 0x1681 JUMPI PUSH2 0x1680 PUSH2 0x13EF JUMP JUMPDEST JUMPDEST PUSH1 0x1 DUP3 ADD SWAP1 POP SWAP2 SWAP1 POP JUMP JUMPDEST PUSH1 0x0 PUSH2 0x1697 DUP3 PUSH2 0xFA6 JUMP JUMPDEST SWAP2 POP PUSH2 0x16A2 DUP4 PUSH2 0xFA6 JUMP JUMPDEST SWAP3 POP DUP3 DUP3 ADD SWAP1 POP DUP1 DUP3 GT ISZERO PUSH2 0x16BA JUMPI PUSH2 0x16B9 PUSH2 0x13EF JUMP JUMPDEST JUMPDEST SWAP3 SWAP2 POP POP JUMP JUMPDEST PUSH1 0x0 PUSH1 0x40 DUP3 ADD SWAP1 POP PUSH2 0x16D5 PUSH1 0x0 DUP4 ADD DUP6 PUSH2 0x104A JUMP JUMPDEST PUSH2 0x16E2 PUSH1 0x20 DUP4 ADD DUP5 PUSH2 0x104A JUMP JUMPDEST SWAP4 SWAP3 POP POP POP JUMP JUMPDEST PUSH32 0x4F6E6C792072656E7465722063616E2077697468647261770000000000000000 PUSH1 0x0 DUP3 ADD MSTORE POP JUMP JUMPDEST PUSH1 0x0 PUSH2 0x171F PUSH1 0x18 DUP4 PUSH2 0x129A JUMP JUMPDEST SWAP2 POP PUSH2 0x172A DUP3 PUSH2 0x16E9 JUMP JUMPDEST PUSH1 0x20 DUP3 ADD SWAP1 POP SWAP2 SWAP1 POP JUMP JUMPDEST PUSH1 0x0 PUSH1 0x20 DUP3 ADD SWAP1 POP DUP2 DUP2 SUB PUSH1 0x0 DUP4 ADD MSTORE PUSH2 0x174E DUP2 PUSH2 0x1712 JUMP JUMPDEST SWAP1 POP SWAP2 SWAP1 POP JUMP JUMPDEST PUSH32 0x41677265656D656E74207374696C6C2061637469766500000000000000000000 PUSH1 0x0 DUP3 ADD MSTORE POP JUMP JUMPDEST PUSH1 0x0 PUSH2 0x178B PUSH1 0x16 DUP4 PUSH2 0x129A JUMP JUMPDEST SWAP2 POP PUSH2 0x1796 DUP3 PUSH2 0x1755 JUMP JUMPDEST PUSH1 0x20 DUP3 ADD SWAP1 POP SWAP2 SWAP1 POP JUMP JUMPDEST PUSH1 0x0 PUSH1 0x20 DUP3 ADD SWAP1 POP DUP2 DUP2 SUB PUSH1 0x0 DUP4 ADD MSTORE PUSH2 0x17BA DUP2 PUSH2 0x177E JUMP JUMPDEST SWAP1 POP SWAP2 SWAP1 POP JUMP JUMPDEST PUSH32 0x4E6F2066756E647320746F207769746864726177000000000000000000000000 PUSH1 0x0 DUP3 ADD MSTORE POP JUMP JUMPDEST PUSH1 0x0 PUSH2 0x17F7 PUSH1 0x14 DUP4 PUSH2 0x129A JUMP JUMPDEST SWAP2 POP PUSH2 0x1802 DUP3 PUSH2 0x17C1 JUMP JUMPDEST PUSH1 0x20 DUP3 ADD SWAP1 POP SWAP2 SWAP1 POP JUMP JUMPDEST PUSH1 0x0 PUSH1 0x20 DUP3 ADD SWAP1 POP DUP2 DUP2 SUB PUSH1 0x0 DUP4 ADD MSTORE PUSH2 0x1826 DUP2 PUSH2 0x17EA JUMP JUMPDEST SWAP1 POP SWAP2 SWAP1 POP JUMP JUMPDEST PUSH32 0x4F6E6C792070726F76696465722063616E207570646174650000000000000000 PUSH1 0x0 DUP3 ADD MSTORE POP JUMP JUMPDEST PUSH1 0x0 PUSH2 0x1863 PUSH1 0x18 DUP4 PUSH2 0x129A JUMP JUMPDEST SWAP2 POP PUSH2 0x186E DUP3 PUSH2 0x182D JUMP JUMPDEST PUSH1 0x20 DUP3 ADD SWAP1 POP SWAP2 SWAP1 POP JUMP JUMPDEST PUSH1 0x0 PUSH1 0x20 DUP3 ADD SWAP1 POP DUP2 DUP2 SUB PUSH1 0x0 DUP4 ADD MSTORE PUSH2 0x1892 DUP2 PUSH2 0x1856 JUMP JUMPDEST SWAP1 POP SWAP2 SWAP1 POP JUMP JUMPDEST PUSH32 0x5573616765206578636565647320616C6C6F636174696F6E0000000000000000 PUSH1 0x0 DUP3 ADD MSTORE POP JUMP JUMPDEST PUSH1 0x0 PUSH2 0x18CF PUSH1 0x18 DUP4 PUSH2 0x129A JUMP JUMPDEST SWAP2 POP PUSH2 0x18DA DUP3 PUSH2 0x1899 JUMP JUMPDEST PUSH1 0x20 DUP3 ADD SWAP1 POP SWAP2 SWAP1 POP JUMP JUMPDEST PUSH1 0x0 PUSH1 0x20 DUP3 ADD SWAP1 POP DUP2 DUP2 SUB PUSH1 0x0 DUP4 ADD MSTORE PUSH2 0x18FE DUP2 PUSH2 0x18C2 JUMP JUMPDEST SWAP1 POP SWAP2 SWAP1 POP JUMP JUMPDEST PUSH32 0x4F6E6C792072656E7465722063616E206465706F736974000000000000000000 PUSH1 0x0 DUP3 ADD MSTORE POP JUMP JUMPDEST PUSH1 0x0 PUSH2 0x193B PUSH1 0x17 DUP4 PUSH2 0x129A JUMP JUMPDEST SWAP2 POP PUSH2 0x1946 DUP3 PUSH2 0x1905 JUMP JUMPDEST PUSH1 0x20 DUP3 ADD SWAP1 POP SWAP2 SWAP1 POP JUMP JUMPDEST PUSH1 0x0 PUSH1 0x20 DUP3 ADD SWAP1 POP DUP2 DUP2 SUB PUSH1 0x0 DUP4 ADD MSTORE PUSH2 0x196A DUP2 PUSH2 0x192E JUMP JUMPDEST SWAP1 POP SWAP2 SWAP1 POP JUMP INVALID LOG2 PUSH5 0x6970667358 0x22 SLT KECCAK256 0x5D 0x5E 0xE4 0xC8 RETURN SWAP5 PUSH26 0x6D9A8B19EB4962890DCB9FCC137E1A43289E6E7B80B40078EE64 PUSH20 0x6F6C634300081400330000000000000000000000 "},"methodIdentifiers":{"agreements(uint256)":"bd14de96","calculateMonthlyPayment(uint256)":"9a9ae8e3","createAgreement(address,uint256,uint256,uint256)":"5f699746","depositEscrow(uint256)":"cb991efe","getAgreement(uint256)":"4f9f6fe6","nextAgreementId()":"c9b99dab","processPayment(uint256)":"3a2f8485","updateStorageUsage(uint256,uint256)":"9de359d7","withdrawEscrow(uint256)":"876512d0"}}}}}