{
  "_format": "hh-sol-artifact-1",
  "contractName": "DIDRegistry",
  "sourceName": "blockchain/DIDRegistry.sol",
  "abi": [
    {
      "anonymous": false,
      "inputs": [
        {
          "indexed": true,
          "internalType": "address",
          "name": "owner",
          "type": "address"
        }
      ],
      "name": "DIDDeactivated",
      "type": "event"
    },
    {
      "anonymous": false,
      "inputs": [
        {
          "indexed": true,
          "internalType": "address",
          "name": "owner",
          "type": "address"
        },
        {
          "indexed": false,
          "internalType": "string",
          "name": "did",
          "type": "string"
        },
        {
          "indexed": false,
          "internalType": "string",
          "name": "docCID",
          "type": "string"
        }
      ],
      "name": "DIDRegistered",
      "type": "event"
    },
    {
      "anonymous": false,
      "inputs": [
        {
          "indexed": true,
          "internalType": "address",
          "name": "owner",
          "type": "address"
        },
        {
          "indexed": false,
          "internalType": "string",
          "name": "newDocCID",
          "type": "string"
        }
      ],
      "name": "DIDUpdated",
      "type": "event"
    },
    {
      "inputs": [],
      "name": "deactivateDID",
      "outputs": [],
      "stateMutability": "nonpayable",
      "type": "function"
    },
    {
      "inputs": [
        {
          "internalType": "address",
          "name": "",
          "type": "address"
        }
      ],
      "name": "dids",
      "outputs": [
        {
          "internalType": "address",
          "name": "owner",
          "type": "address"
        },
        {
          "internalType": "string",
          "name": "didFragment",
          "type": "string"
        },
        {
          "internalType": "string",
          "name": "docCID",
          "type": "string"
        },
        {
          "internalType": "bool",
          "name": "active",
          "type": "bool"
        },
        {
          "internalType": "uint256",
          "name": "createdAt",
          "type": "uint256"
        },
        {
          "internalType": "uint256",
          "name": "updatedAt",
          "type": "uint256"
        }
      ],
      "stateMutability": "view",
      "type": "function"
    },
    {
      "inputs": [
        {
          "internalType": "string",
          "name": "_didFragment",
          "type": "string"
        },
        {
          "internalType": "string",
          "name": "_docCID",
          "type": "string"
        }
      ],
      "name": "registerDID",
      "outputs": [],
      "stateMutability": "nonpayable",
      "type": "function"
    },
    {
      "inputs": [
        {
          "internalType": "address",
          "name": "_owner",
          "type": "address"
        }
      ],
      "name": "resolveDID",
      "outputs": [
        {
          "internalType": "string",
          "name": "did",
          "type": "string"
        },
        {
          "internalType": "string",
          "name": "docCID",
          "type": "string"
        },
        {
          "internalType": "bool",
          "name": "active",
          "type": "bool"
        }
      ],
      "stateMutability": "view",
      "type": "function"
    },
    {
      "inputs": [
        {
          "internalType": "string",
          "name": "_newDocCID",
          "type": "string"
        }
      ],
      "name": "updateDIDDocument",
      "outputs": [],
      "stateMutability": "nonpayable",
      "type": "function"
    }
  ],
  "bytecode": "0x608060405234801561001057600080fd5b50611a3a806100206000396000f3fe608060405234801561001057600080fd5b50600436106100575760003560e01c80633593f81b1461005c578063420ae41e14610091578063767bc20e146100ad5780637e5c39e9146100b7578063e627dcb6146100d3575b600080fd5b61007660048036038101906100719190610c98565b610105565b60405161008896959493929190610d98565b60405180910390f35b6100ab60048036038101906100a69190610f3c565b61027e565b005b6100b56103f2565b005b6100d160048036038101906100cc9190610f85565b610565565b005b6100ed60048036038101906100e89190610c98565b61079a565b6040516100fc93929190610ffd565b60405180910390f35b60006020528060005260406000206000915090508060000160009054906101000a900473ffffffffffffffffffffffffffffffffffffffff169080600101805461014e90611071565b80601f016020809104026020016040519081016040528092919081815260200182805461017a90611071565b80156101c75780601f1061019c576101008083540402835291602001916101c7565b820191906000526020600020905b8154815290600101906020018083116101aa57829003601f168201915b5050505050908060020180546101dc90611071565b80601f016020809104026020016040519081016040528092919081815260200182805461020890611071565b80156102555780601f1061022a57610100808354040283529160200191610255565b820191906000526020600020905b81548152906001019060200180831161023857829003601f168201915b5050505050908060030160009054906101000a900460ff16908060040154908060050154905086565b6000803373ffffffffffffffffffffffffffffffffffffffff1673ffffffffffffffffffffffffffffffffffffffff16815260200190815260200160002060030160009054906101000a900460ff1661030c576040517f08c379a0000000000000000000000000000000000000000000000000000000008152600401610303906110ee565b60405180910390fd5b806000803373ffffffffffffffffffffffffffffffffffffffff1673ffffffffffffffffffffffffffffffffffffffff168152602001908152602001600020600201908161035a91906112ba565b50426000803373ffffffffffffffffffffffffffffffffffffffff1673ffffffffffffffffffffffffffffffffffffffff168152602001908152602001600020600501819055503373ffffffffffffffffffffffffffffffffffffffff167fa0016473004b22caf3cbe32658844f4dfe20b54f72612d0ea625cc07ca3a192b826040516103e7919061138c565b60405180910390a250565b6000803373ffffffffffffffffffffffffffffffffffffffff1673ffffffffffffffffffffffffffffffffffffffff16815260200190815260200160002060030160009054906101000a900460ff16610480576040517f08c379a0000000000000000000000000000000000000000000000000000000008152600401610477906113fa565b60405180910390fd5b60008060003373ffffffffffffffffffffffffffffffffffffffff1673ffffffffffffffffffffffffffffffffffffffff16815260200190815260200160002060030160006101000a81548160ff021916908315150217905550426000803373ffffffffffffffffffffffffffffffffffffffff1673ffffffffffffffffffffffffffffffffffffffff168152602001908152602001600020600501819055503373ffffffffffffffffffffffffffffffffffffffff167f236b7a85392c62d219956b1f2d21f622daa26da228a7972f50caa2be59bf170660405160405180910390a2565b60008060003373ffffffffffffffffffffffffffffffffffffffff1673ffffffffffffffffffffffffffffffffffffffff16815260200190815260200160002060040154146105e9576040517f08c379a00000000000000000000000000000000000000000000000000000000081526004016105e09061148c565b60405180910390fd5b6040518060c001604052803373ffffffffffffffffffffffffffffffffffffffff168152602001838152602001828152602001600115158152602001428152602001428152506000803373ffffffffffffffffffffffffffffffffffffffff1673ffffffffffffffffffffffffffffffffffffffff16815260200190815260200160002060008201518160000160006101000a81548173ffffffffffffffffffffffffffffffffffffffff021916908373ffffffffffffffffffffffffffffffffffffffff16021790555060208201518160010190816106c991906112ba565b5060408201518160020190816106df91906112ba565b5060608201518160030160006101000a81548160ff0219169083151502179055506080820151816004015560a08201518160050155905050600061072233610a1d565b83604051602001610734929190611580565b60405160208183030381529060405290503373ffffffffffffffffffffffffffffffffffffffff167f9f9e551d0f9d37cbfd9f18d5bffe17f0ab26bf932ac76ad9c6b2f573cae3dff2828460405161078d9291906115ba565b60405180910390a2505050565b6060806000806000808673ffffffffffffffffffffffffffffffffffffffff1673ffffffffffffffffffffffffffffffffffffffff1681526020019081526020016000206040518060c00160405290816000820160009054906101000a900473ffffffffffffffffffffffffffffffffffffffff1673ffffffffffffffffffffffffffffffffffffffff1673ffffffffffffffffffffffffffffffffffffffff16815260200160018201805461084f90611071565b80601f016020809104026020016040519081016040528092919081815260200182805461087b90611071565b80156108c85780601f1061089d576101008083540402835291602001916108c8565b820191906000526020600020905b8154815290600101906020018083116108ab57829003601f168201915b505050505081526020016002820180546108e190611071565b80601f016020809104026020016040519081016040528092919081815260200182805461090d90611071565b801561095a5780601f1061092f5761010080835404028352916020019161095a565b820191906000526020600020905b81548152906001019060200180831161093d57829003601f168201915b505050505081526020016003820160009054906101000a900460ff1615151515815260200160048201548152602001600582015481525050905060008160800151036109d05760006040518060200160405280600081525090604051806020016040528060008152509093509350935050610a16565b60006109db86610a1d565b82602001516040516020016109f1929190611580565b6040516020818303038152906040529050808260400151836060015194509450945050505b9193909250565b60606000602867ffffffffffffffff811115610a3c57610a3b610e11565b5b6040519080825280601f01601f191660200182016040528015610a6e5781602001600182028036833780820191505090505b50905060005b6014811015610bd6576000816013610a8c9190611620565b6008610a989190611654565b6002610aa491906117c9565b8573ffffffffffffffffffffffffffffffffffffffff16610ac59190611843565b60f81b9050600060108260f81c610adc9190611881565b60f81b905060008160f81c6010610af391906118b2565b8360f81c610b0191906118ef565b60f81b9050610b0f82610be0565b85856002610b1d9190611654565b81518110610b2e57610b2d611924565b5b60200101907effffffffffffffffffffffffffffffffffffffffffffffffffffffffffffff1916908160001a905350610b6681610be0565b856001866002610b769190611654565b610b809190611953565b81518110610b9157610b90611924565b5b60200101907effffffffffffffffffffffffffffffffffffffffffffffffffffffffffffff1916908160001a9053505050508080610bce90611987565b915050610a74565b5080915050919050565b6000600a8260f81c60ff161015610c0b5760308260f81c610c0191906119cf565b60f81b9050610c21565b60578260f81c610c1b91906119cf565b60f81b90505b919050565b6000604051905090565b600080fd5b600080fd5b600073ffffffffffffffffffffffffffffffffffffffff82169050919050565b6000610c6582610c3a565b9050919050565b610c7581610c5a565b8114610c8057600080fd5b50565b600081359050610c9281610c6c565b92915050565b600060208284031215610cae57610cad610c30565b5b6000610cbc84828501610c83565b91505092915050565b610cce81610c5a565b82525050565b600081519050919050565b600082825260208201905092915050565b60005b83811015610d0e578082015181840152602081019050610cf3565b60008484015250505050565b6000601f19601f8301169050919050565b6000610d3682610cd4565b610d408185610cdf565b9350610d50818560208601610cf0565b610d5981610d1a565b840191505092915050565b60008115159050919050565b610d7981610d64565b82525050565b6000819050919050565b610d9281610d7f565b82525050565b600060c082019050610dad6000830189610cc5565b8181036020830152610dbf8188610d2b565b90508181036040830152610dd38187610d2b565b9050610de26060830186610d70565b610def6080830185610d89565b610dfc60a0830184610d89565b979650505050505050565b600080fd5b600080fd5b7f4e487b7100000000000000000000000000000000000000000000000000000000600052604160045260246000fd5b610e4982610d1a565b810181811067ffffffffffffffff82111715610e6857610e67610e11565b5b80604052505050565b6000610e7b610c26565b9050610e878282610e40565b919050565b600067ffffffffffffffff821115610ea757610ea6610e11565b5b610eb082610d1a565b9050602081019050919050565b82818337600083830152505050565b6000610edf610eda84610e8c565b610e71565b905082815260208101848484011115610efb57610efa610e0c565b5b610f06848285610ebd565b509392505050565b600082601f830112610f2357610f22610e07565b5b8135610f33848260208601610ecc565b91505092915050565b600060208284031215610f5257610f51610c30565b5b600082013567ffffffffffffffff811115610f7057610f6f610c35565b5b610f7c84828501610f0e565b91505092915050565b60008060408385031215610f9c57610f9b610c30565b5b600083013567ffffffffffffffff811115610fba57610fb9610c35565b5b610fc685828601610f0e565b925050602083013567ffffffffffffffff811115610fe757610fe6610c35565b5b610ff385828601610f0e565b9150509250929050565b600060608201905081810360008301526110178186610d2b565b9050818103602083015261102b8185610d2b565b905061103a6040830184610d70565b949350505050565b7f4e487b7100000000000000000000000000000000000000000000000000000000600052602260045260246000fd5b6000600282049050600182168061108957607f821691505b60208210810361109c5761109b611042565b5b50919050565b7f444944206e6f7420616374697665206f72206e6f7420666f756e640000000000600082015250565b60006110d8601b83610cdf565b91506110e3826110a2565b602082019050919050565b60006020820190508181036000830152611107816110cb565b9050919050565b60008190508160005260206000209050919050565b60006020601f8301049050919050565b600082821b905092915050565b6000600883026111707fffffffffffffffffffffffffffffffffffffffffffffffffffffffffffffffff82611133565b61117a8683611133565b95508019841693508086168417925050509392505050565b6000819050919050565b60006111b76111b26111ad84610d7f565b611192565b610d7f565b9050919050565b6000819050919050565b6111d18361119c565b6111e56111dd826111be565b848454611140565b825550505050565b600090565b6111fa6111ed565b6112058184846111c8565b505050565b5b818110156112295761121e6000826111f2565b60018101905061120b565b5050565b601f82111561126e5761123f8161110e565b61124884611123565b81016020851015611257578190505b61126b61126385611123565b83018261120a565b50505b505050565b600082821c905092915050565b600061129160001984600802611273565b1980831691505092915050565b60006112aa8383611280565b9150826002028217905092915050565b6112c382610cd4565b67ffffffffffffffff8111156112dc576112db610e11565b5b6112e68254611071565b6112f182828561122d565b600060209050601f8311600181146113245760008415611312578287015190505b61131c858261129e565b865550611384565b601f1984166113328661110e565b60005b8281101561135a57848901518255600182019150602085019450602081019050611335565b868310156113775784890151611373601f891682611280565b8355505b6001600288020188555050505b505050505050565b600060208201905081810360008301526113a68184610d2b565b905092915050565b7f444944206e6f7420616374697665000000000000000000000000000000000000600082015250565b60006113e4600e83610cdf565b91506113ef826113ae565b602082019050919050565b60006020820190508181036000830152611413816113d7565b9050919050565b7f44494420616c7265616479207265676973746572656420666f7220746869732060008201527f6164647265737300000000000000000000000000000000000000000000000000602082015250565b6000611476602783610cdf565b91506114818261141a565b604082019050919050565b600060208201905081810360008301526114a581611469565b9050919050565b600081905092915050565b7f6469643a657468657265756d3a00000000000000000000000000000000000000600082015250565b60006114ed600d836114ac565b91506114f8826114b7565b600d82019050919050565b600061150e82610cd4565b61151881856114ac565b9350611528818560208601610cf0565b80840191505092915050565b7f2300000000000000000000000000000000000000000000000000000000000000600082015250565b600061156a6001836114ac565b915061157582611534565b600182019050919050565b600061158b826114e0565b91506115978285611503565b91506115a28261155d565b91506115ae8284611503565b91508190509392505050565b600060408201905081810360008301526115d48185610d2b565b905081810360208301526115e88184610d2b565b90509392505050565b7f4e487b7100000000000000000000000000000000000000000000000000000000600052601160045260246000fd5b600061162b82610d7f565b915061163683610d7f565b925082820390508181111561164e5761164d6115f1565b5b92915050565b600061165f82610d7f565b915061166a83610d7f565b925082820261167881610d7f565b9150828204841483151761168f5761168e6115f1565b5b5092915050565b60008160011c9050919050565b6000808291508390505b60018511156116ed578086048111156116c9576116c86115f1565b5b60018516156116d85780820291505b80810290506116e685611696565b94506116ad565b94509492505050565b60008261170657600190506117c2565b8161171457600090506117c2565b816001811461172a576002811461173457611763565b60019150506117c2565b60ff841115611746576117456115f1565b5b8360020a91508482111561175d5761175c6115f1565b5b506117c2565b5060208310610133831016604e8410600b84101617156117985782820a905083811115611793576117926115f1565b5b6117c2565b6117a584848460016116a3565b925090508184048111156117bc576117bb6115f1565b5b81810290505b9392505050565b60006117d482610d7f565b91506117df83610d7f565b925061180c7fffffffffffffffffffffffffffffffffffffffffffffffffffffffffffffffff84846116f6565b905092915050565b7f4e487b7100000000000000000000000000000000000000000000000000000000600052601260045260246000fd5b600061184e82610d7f565b915061185983610d7f565b92508261186957611868611814565b5b828204905092915050565b600060ff82169050919050565b600061188c82611874565b915061189783611874565b9250826118a7576118a6611814565b5b828204905092915050565b60006118bd82611874565b91506118c883611874565b92508282026118d681611874565b91508082146118e8576118e76115f1565b5b5092915050565b60006118fa82611874565b915061190583611874565b9250828203905060ff81111561191e5761191d6115f1565b5b92915050565b7f4e487b7100000000000000000000000000000000000000000000000000000000600052603260045260246000fd5b600061195e82610d7f565b915061196983610d7f565b9250828201905080821115611981576119806115f1565b5b92915050565b600061199282610d7f565b91507fffffffffffffffffffffffffffffffffffffffffffffffffffffffffffffffff82036119c4576119c36115f1565b5b600182019050919050565b60006119da82611874565b91506119e583611874565b9250828201905060ff8111156119fe576119fd6115f1565b5b9291505056fea2646970667358221220348fbbd355a5b2b730c73b9566c5927fc4ef95276e6d0a3cf07b037ffcd0554064736f6c63430008140033",
  "linkReferences": {},
  "deployedLinkReferences": {}
}