{
  "_format": "hh-sol-artifact-1",
  "contractName": "StorageContractV2",
  "sourceName": "blockchain/StorageContractV2.sol",
  "abi": [
    {
      "anonymous": false,
      "inputs": [
        {
          "indexed": true,
          "internalType": "uint256",
          "name": "agreementId",
          "type": "uint256"
        },
        {
          "indexed": true,
          "internalType": "address",
          "name": "renter",
          "type": "address"
        },
        {
          "indexed": true,
          "internalType": "address",
          "name": "provider",
          "type": "address"
        },
        {
          "indexed": false,
          "internalType": "uint256",
          "name": "allocatedGB",
          "type": "uint256"
        },
        {
          "indexed": false,
          "internalType": "uint256",
          "name": "totalCost",
          "type": "uint256"
        }
      ],
      "name": "AgreementCreated",
      "type": "event"
    },
    {
      "anonymous": false,
      "inputs": [
        {
          "indexed": true,
          "internalType": "uint256",
          "name": "agreementId",
          "type": "uint256"
        }
      ],
      "name": "AgreementFulfilled",
      "type": "event"
    },
    {
      "anonymous": false,
      "inputs": [
        {
          "indexed": true,
          "internalType": "uint256",
          "name": "agreementId",
          "type": "uint256"
        },
        {
          "indexed": true,
          "internalType": "address",
          "name": "depositor",
          "type": "address"
        },
        {
          "indexed": false,
          "internalType": "uint256",
          "name": "amount",
          "type": "uint256"
        }
      ],
      "name": "EscrowDeposited",
      "type": "event"
    },
    {
      "anonymous": false,
      "inputs": [
        {
          "indexed": true,
          "internalType": "uint256",
          "name": "agreementId",
          "type": "uint256"
        },
        {
          "indexed": true,
          "internalType": "address",
          "name": "from",
          "type": "address"
        },
        {
          "indexed": true,
          "internalType": "address",
          "name": "to",
          "type": "address"
        },
        {
          "indexed": false,
          "internalType": "uint256",
          "name": "amount",
          "type": "uint256"
        }
      ],
      "name": "PaymentProcessed",
      "type": "event"
    },
    {
      "anonymous": false,
      "inputs": [
        {
          "indexed": true,
          "internalType": "uint256",
          "name": "agreementId",
          "type": "uint256"
        },
        {
          "indexed": false,
          "internalType": "uint256",
          "name": "oldUsage",
          "type": "uint256"
        },
        {
          "indexed": false,
          "internalType": "uint256",
          "name": "newUsage",
          "type": "uint256"
        }
      ],
      "name": "StorageUsageUpdated",
      "type": "event"
    },
    {
      "inputs": [
        {
          "internalType": "uint256",
          "name": "",
          "type": "uint256"
        }
      ],
      "name": "agreements",
      "outputs": [
        {
          "internalType": "address",
          "name": "renter",
          "type": "address"
        },
        {
          "internalType": "address",
          "name": "provider",
          "type": "address"
        },
        {
          "internalType": "uint256",
          "name": "allocatedGB",
          "type": "uint256"
        },
        {
          "internalType": "uint256",
          "name": "usedGB",
          "type": "uint256"
        },
        {
          "internalType": "uint256",
          "name": "pricePerGBPerMonth",
          "type": "uint256"
        },
        {
          "internalType": "uint256",
          "name": "durationMonths",
          "type": "uint256"
        },
        {
          "internalType": "uint256",
          "name": "totalCost",
          "type": "uint256"
        },
        {
          "internalType": "uint256",
          "name": "escrowBalance",
          "type": "uint256"
        },
        {
          "internalType": "uint256",
          "name": "createdAt",
          "type": "uint256"
        },
        {
          "internalType": "uint256",
          "name": "expiresAt",
          "type": "uint256"
        },
        {
          "internalType": "bool",
          "name": "active",
          "type": "bool"
        },
        {
          "internalType": "bool",
          "name": "fulfilled",
          "type": "bool"
        }
      ],
      "stateMutability": "view",
      "type": "function"
    },
    {
      "inputs": [
        {
          "internalType": "uint256",
          "name": "_agreementId",
          "type": "uint256"
        }
      ],
      "name": "calculateMonthlyPayment",
      "outputs": [
        {
          "internalType": "uint256",
          "name": "",
          "type": "uint256"
        }
      ],
      "stateMutability": "view",
      "type": "function"
    },
    {
      "inputs": [
        {
          "internalType": "address",
          "name": "_provider",
          "type": "address"
        },
        {
          "internalType": "uint256",
          "name": "_allocatedGB",
          "type": "uint256"
        },
        {
          "internalType": "uint256",
          "name": "_pricePerGBPerMonth",
          "type": "uint256"
        },
        {
          "internalType": "uint256",
          "name": "_durationMonths",
          "type": "uint256"
        }
      ],
      "name": "createAgreement",
      "outputs": [
        {
          "internalType": "uint256",
          "name": "",
          "type": "uint256"
        }
      ],
      "stateMutability": "payable",
      "type": "function"
    },
    {
      "inputs": [
        {
          "internalType": "uint256",
          "name": "_agreementId",
          "type": "uint256"
        }
      ],
      "name": "depositEscrow",
      "outputs": [],
      "stateMutability": "payable",
      "type": "function"
    },
    {
      "inputs": [
        {
          "internalType": "uint256",
          "name": "_agreementId",
          "type": "uint256"
        }
      ],
      "name": "getAgreement",
      "outputs": [
        {
          "internalType": "address",
          "name": "renter",
          "type": "address"
        },
        {
          "internalType": "address",
          "name": "provider",
          "type": "address"
        },
        {
          "internalType": "uint256",
          "name": "allocatedGB",
          "type": "uint256"
        },
        {
          "internalType": "uint256",
          "name": "usedGB",
          "type": "uint256"
        },
        {
          "internalType": "uint256",
          "name": "pricePerGBPerMonth",
          "type": "uint256"
        },
        {
          "internalType": "uint256",
          "name": "escrowBalance",
          "type": "uint256"
        },
        {
          "internalType": "bool",
          "name": "active",
          "type": "bool"
        },
        {
          "internalType": "bool",
          "name": "fulfilled",
          "type": "bool"
        }
      ],
      "stateMutability": "view",
      "type": "function"
    },
    {
      "inputs": [],
      "name": "nextAgreementId",
      "outputs": [
        {
          "internalType": "uint256",
          "name": "",
          "type": "uint256"
        }
      ],
      "stateMutability": "view",
      "type": "function"
    },
    {
      "inputs": [
        {
          "internalType": "uint256",
          "name": "_agreementId",
          "type": "uint256"
        }
      ],
      "name": "processPayment",
      "outputs": [],
      "stateMutability": "nonpayable",
      "type": "function"
    },
    {
      "inputs": [
        {
          "internalType": "uint256",
          "name": "_agreementId",
          "type": "uint256"
        },
        {
          "internalType": "uint256",
          "name": "_newUsedGB",
          "type": "uint256"
        }
      ],
      "name": "updateStorageUsage",
      "outputs": [],
      "stateMutability": "nonpayable",
      "type": "function"
    },
    {
      "inputs": [
        {
          "internalType": "uint256",
          "name": "_agreementId",
          "type": "uint256"
        }
      ],
      "name": "withdrawEscrow",
      "outputs": [],
      "stateMutability": "nonpayable",
      "type": "function"
    }
  ],
  "bytecode": "0x60806040526001805534801561001457600080fd5b506119a7806100246000396000f3fe6080604052600436106100865760003560e01c80639a9ae8e3116100595780639a9ae8e3146101515780639de359d71461018e578063bd14de96146101b7578063c9b99dab146101ff578063cb991efe1461022a57610086565b80633a2f84851461008b5780634f9f6fe6146100b45780635f699746146100f8578063876512d014610128575b600080fd5b34801561009757600080fd5b506100b260048036038101906100ad9190610fdc565b610246565b005b3480156100c057600080fd5b506100db60048036038101906100d69190610fdc565b610504565b6040516100ef989796959493929190611074565b60405180910390f35b610112600480360381019061010d919061111e565b6105c4565b60405161011f9190611185565b60405180910390f35b34801561013457600080fd5b5061014f600480360381019061014a9190610fdc565b610a0f565b005b34801561015d57600080fd5b5061017860048036038101906101739190610fdc565b610baf565b6040516101859190611185565b60405180910390f35b34801561019a57600080fd5b506101b560048036038101906101b091906111a0565b610be8565b005b3480156101c357600080fd5b506101de60048036038101906101d99190610fdc565b610d7a565b6040516101f69c9b9a999897969594939291906111e0565b60405180910390f35b34801561020b57600080fd5b50610214610e34565b6040516102219190611185565b60405180910390f35b610244600480360381019061023f9190610fdc565b610e3a565b005b6000806000838152602001908152602001600020905080600a0160009054906101000a900460ff166102ad576040517f08c379a00000000000000000000000000000000000000000000000000000000081526004016102a4906112f7565b60405180910390fd5b806009015442106102f3576040517f08c379a00000000000000000000000000000000000000000000000000000000081526004016102ea90611363565b60405180910390fd5b60006102fe83610baf565b90508082600701541015610347576040517f08c379a000000000000000000000000000000000000000000000000000000000815260040161033e906113cf565b60405180910390fd5b8082600701600082825461035b919061141e565b925050819055508160010160009054906101000a900473ffffffffffffffffffffffffffffffffffffffff1673ffffffffffffffffffffffffffffffffffffffff166108fc829081150290604051600060405180830381858888f193505050501580156103cc573d6000803e3d6000fd5b508160010160009054906101000a900473ffffffffffffffffffffffffffffffffffffffff1673ffffffffffffffffffffffffffffffffffffffff168260000160009054906101000a900473ffffffffffffffffffffffffffffffffffffffff1673ffffffffffffffffffffffffffffffffffffffff16847f37a13dcf7266fe3681e46ca252ea4f79e8a76da88ae9446f99242fbc014a6c39846040516104739190611185565b60405180910390a4600082600701541480610492575081600901544210155b156104ff57600082600a0160006101000a81548160ff021916908315150217905550600182600a0160016101000a81548160ff021916908315150217905550827f52867b6621c82bd178a9944b8c1f1f29aba680811948fb9f8cfbd2fbd46108ee60405160405180910390a25b505050565b60008060008060008060008060008060008b815260200190815260200160002090508060000160009054906101000a900473ffffffffffffffffffffffffffffffffffffffff168160010160009054906101000a900473ffffffffffffffffffffffffffffffffffffffff16826002015483600301548460040154856007015486600a0160009054906101000a900460ff1687600a0160019054906101000a900460ff169850985098509850985098509850985050919395975091939597565b60008073ffffffffffffffffffffffffffffffffffffffff168573ffffffffffffffffffffffffffffffffffffffff1603610634576040517f08c379a000000000000000000000000000000000000000000000000000000000815260040161062b9061149e565b60405180910390fd5b60008411610677576040517f08c379a000000000000000000000000000000000000000000000000000000000815260040161066e9061150a565b60405180910390fd5b600083116106ba576040517f08c379a00000000000000000000000000000000000000000000000000000000081526004016106b190611576565b60405180910390fd5b600082116106fd576040517f08c379a00000000000000000000000000000000000000000000000000000000081526004016106f4906115e2565b60405180910390fd5b600082848661070c9190611602565b6107169190611602565b90508034101561075b576040517f08c379a0000000000000000000000000000000000000000000000000000000008152600401610752906113cf565b60405180910390fd5b60006001600081548092919061077090611644565b9190505590506040518061018001604052803373ffffffffffffffffffffffffffffffffffffffff1681526020018873ffffffffffffffffffffffffffffffffffffffff1681526020018781526020016000815260200186815260200185815260200183815260200134815260200142815260200162278d00866107f49190611602565b426107ff919061168c565b81526020016001151581526020016000151581525060008083815260200190815260200160002060008201518160000160006101000a81548173ffffffffffffffffffffffffffffffffffffffff021916908373ffffffffffffffffffffffffffffffffffffffff16021790555060208201518160010160006101000a81548173ffffffffffffffffffffffffffffffffffffffff021916908373ffffffffffffffffffffffffffffffffffffffff16021790555060408201518160020155606082015181600301556080820151816004015560a0820151816005015560c0820151816006015560e082015181600701556101008201518160080155610120820151816009015561014082015181600a0160006101000a81548160ff02191690831515021790555061016082015181600a0160016101000a81548160ff0219169083151502179055509050508673ffffffffffffffffffffffffffffffffffffffff163373ffffffffffffffffffffffffffffffffffffffff16827f3c1867bff257696179f61d7c10de569ff1df9e3b93eea435163e124b264843fa89866040516109ab9291906116c0565b60405180910390a43373ffffffffffffffffffffffffffffffffffffffff16817f9a57bbb234b70fc26fbb5c8d65f00c0bba23b19c4a7bb1aedb26c7a04269f747346040516109fa9190611185565b60405180910390a38092505050949350505050565b600080600083815260200190815260200160002090508060000160009054906101000a900473ffffffffffffffffffffffffffffffffffffffff1673ffffffffffffffffffffffffffffffffffffffff163373ffffffffffffffffffffffffffffffffffffffff1614610ab7576040517f08c379a0000000000000000000000000000000000000000000000000000000008152600401610aae90611735565b60405180910390fd5b80600a0160009054906101000a900460ff1615610b09576040517f08c379a0000000000000000000000000000000000000000000000000000000008152600401610b00906117a1565b60405180910390fd5b6000816007015411610b50576040517f08c379a0000000000000000000000000000000000000000000000000000000008152600401610b479061180d565b60405180910390fd5b600081600701549050600082600701819055503373ffffffffffffffffffffffffffffffffffffffff166108fc829081150290604051600060405180830381858888f19350505050158015610ba9573d6000803e3d6000fd5b50505050565b6000806000808481526020019081526020016000209050600081600401548260020154610bdc9190611602565b90508092505050919050565b6000806000848152602001908152602001600020905080600a0160009054906101000a900460ff16610c4f576040517f08c379a0000000000000000000000000000000000000000000000000000000008152600401610c46906112f7565b60405180910390fd5b8060010160009054906101000a900473ffffffffffffffffffffffffffffffffffffffff1673ffffffffffffffffffffffffffffffffffffffff163373ffffffffffffffffffffffffffffffffffffffff1614610ce1576040517f08c379a0000000000000000000000000000000000000000000000000000000008152600401610cd890611879565b60405180910390fd5b8060020154821115610d28576040517f08c379a0000000000000000000000000000000000000000000000000000000008152600401610d1f906118e5565b60405180910390fd5b600081600301549050828260030181905550837f8ff41d718bc138fbd8310708a964e642953f0258fd5ffb02020754b0a3a5ad438285604051610d6c9291906116c0565b60405180910390a250505050565b60006020528060005260406000206000915090508060000160009054906101000a900473ffffffffffffffffffffffffffffffffffffffff16908060010160009054906101000a900473ffffffffffffffffffffffffffffffffffffffff169080600201549080600301549080600401549080600501549080600601549080600701549080600801549080600901549080600a0160009054906101000a900460ff169080600a0160019054906101000a900460ff1690508c565b60015481565b6000806000838152602001908152602001600020905080600a0160009054906101000a900460ff16610ea1576040517f08c379a0000000000000000000000000000000000000000000000000000000008152600401610e98906112f7565b60405180910390fd5b8060000160009054906101000a900473ffffffffffffffffffffffffffffffffffffffff1673ffffffffffffffffffffffffffffffffffffffff163373ffffffffffffffffffffffffffffffffffffffff1614610f33576040517f08c379a0000000000000000000000000000000000000000000000000000000008152600401610f2a90611951565b60405180910390fd5b34816007016000828254610f47919061168c565b925050819055503373ffffffffffffffffffffffffffffffffffffffff16827f9a57bbb234b70fc26fbb5c8d65f00c0bba23b19c4a7bb1aedb26c7a04269f74734604051610f959190611185565b60405180910390a35050565b600080fd5b6000819050919050565b610fb981610fa6565b8114610fc457600080fd5b50565b600081359050610fd681610fb0565b92915050565b600060208284031215610ff257610ff1610fa1565b5b600061100084828501610fc7565b91505092915050565b600073ffffffffffffffffffffffffffffffffffffffff82169050919050565b600061103482611009565b9050919050565b61104481611029565b82525050565b61105381610fa6565b82525050565b60008115159050919050565b61106e81611059565b82525050565b60006101008201905061108a600083018b61103b565b611097602083018a61103b565b6110a4604083018961104a565b6110b1606083018861104a565b6110be608083018761104a565b6110cb60a083018661104a565b6110d860c0830185611065565b6110e560e0830184611065565b9998505050505050505050565b6110fb81611029565b811461110657600080fd5b50565b600081359050611118816110f2565b92915050565b6000806000806080858703121561113857611137610fa1565b5b600061114687828801611109565b945050602061115787828801610fc7565b935050604061116887828801610fc7565b925050606061117987828801610fc7565b91505092959194509250565b600060208201905061119a600083018461104a565b92915050565b600080604083850312156111b7576111b6610fa1565b5b60006111c585828601610fc7565b92505060206111d685828601610fc7565b9150509250929050565b6000610180820190506111f6600083018f61103b565b611203602083018e61103b565b611210604083018d61104a565b61121d606083018c61104a565b61122a608083018b61104a565b61123760a083018a61104a565b61124460c083018961104a565b61125160e083018861104a565b61125f61010083018761104a565b61126d61012083018661104a565b61127b610140830185611065565b611289610160830184611065565b9d9c50505050505050505050505050565b600082825260208201905092915050565b7f41677265656d656e74206e6f7420616374697665000000000000000000000000600082015250565b60006112e160148361129a565b91506112ec826112ab565b602082019050919050565b60006020820190508181036000830152611310816112d4565b9050919050565b7f41677265656d656e742065787069726564000000000000000000000000000000600082015250565b600061134d60118361129a565b915061135882611317565b602082019050919050565b6000602082019050818103600083015261137c81611340565b9050919050565b7f496e73756666696369656e7420657363726f7700000000000000000000000000600082015250565b60006113b960138361129a565b91506113c482611383565b602082019050919050565b600060208201905081810360008301526113e8816113ac565b9050919050565b7f4e487b7100000000000000000000000000000000000000000000000000000000600052601160045260246000fd5b600061142982610fa6565b915061143483610fa6565b925082820390508181111561144c5761144b6113ef565b5b92915050565b7f496e76616c69642070726f766964657200000000000000000000000000000000600082015250565b600061148860108361129a565b915061149382611452565b602082019050919050565b600060208201905081810360008301526114b78161147b565b9050919050565b7f416c6c6f6361746564204742206d757374206265203e20300000000000000000600082015250565b60006114f460188361129a565b91506114ff826114be565b602082019050919050565b60006020820190508181036000830152611523816114e7565b9050919050565b7f5072696365206d757374206265203e2030000000000000000000000000000000600082015250565b600061156060118361129a565b915061156b8261152a565b602082019050919050565b6000602082019050818103600083015261158f81611553565b9050919050565b7f4475726174696f6e206d757374206265203e2030000000000000000000000000600082015250565b60006115cc60148361129a565b91506115d782611596565b602082019050919050565b600060208201905081810360008301526115fb816115bf565b9050919050565b600061160d82610fa6565b915061161883610fa6565b925082820261162681610fa6565b9150828204841483151761163d5761163c6113ef565b5b5092915050565b600061164f82610fa6565b91507fffffffffffffffffffffffffffffffffffffffffffffffffffffffffffffffff8203611681576116806113ef565b5b600182019050919050565b600061169782610fa6565b91506116a283610fa6565b92508282019050808211156116ba576116b96113ef565b5b92915050565b60006040820190506116d5600083018561104a565b6116e2602083018461104a565b9392505050565b7f4f6e6c792072656e7465722063616e2077697468647261770000000000000000600082015250565b600061171f60188361129a565b915061172a826116e9565b602082019050919050565b6000602082019050818103600083015261174e81611712565b9050919050565b7f41677265656d656e74207374696c6c2061637469766500000000000000000000600082015250565b600061178b60168361129a565b915061179682611755565b602082019050919050565b600060208201905081810360008301526117ba8161177e565b9050919050565b7f4e6f2066756e647320746f207769746864726177000000000000000000000000600082015250565b60006117f760148361129a565b9150611802826117c1565b602082019050919050565b60006020820190508181036000830152611826816117ea565b9050919050565b7f4f6e6c792070726f76696465722063616e207570646174650000000000000000600082015250565b600061186360188361129a565b915061186e8261182d565b602082019050919050565b6000602082019050818103600083015261189281611856565b9050919050565b7f5573616765206578636565647320616c6c6f636174696f6e0000000000000000600082015250565b60006118cf60188361129a565b91506118da82611899565b602082019050919050565b600060208201905081810360008301526118fe816118c2565b9050919050565b7f4f6e6c792072656e7465722063616e206465706f736974000000000000000000600082015250565b600061193b60178361129a565b915061194682611905565b602082019050919050565b6000602082019050818103600083015261196a8161192e565b905091905056fea26469706673582212205d5ee4c8f394796d9a8b19eb4962890dcb9fcc137e1a43289e6e7b80b40078ee64736f6c63430008140033",
  "linkReferences": {},
  "deployedLinkReferences": {}
}