{
  "_format": "hh-sol-artifact-1",
  "contractName": "PaymentProcessorV2",
  "sourceName": "blockchain/PaymentProcessorV2.sol",
  "abi": [
    {
      "inputs": [],
      "stateMutability": "nonpayable",
      "type": "constructor"
    },
    {
      "anonymous": false,
      "inputs": [
        {
          "indexed": true,
          "internalType": "address",
          "name": "from",
          "type": "address"
        },
        {
          "indexed": false,
          "internalType": "uint256",
          "name": "totalAmount",
          "type": "uint256"
        },
        {
          "indexed": false,
          "internalType": "uint256",
          "name": "recipientsCount",
          "type": "uint256"
        }
      ],
      "name": "BatchPaymentProcessed",
      "type": "event"
    },
    {
      "anonymous": false,
      "inputs": [
        {
          "indexed": true,
          "internalType": "uint256",
          "name": "paymentId",
          "type": "uint256"
        },
        {
          "indexed": true,
          "internalType": "address",
          "name": "from",
          "type": "address"
        },
        {
          "indexed": true,
          "internalType": "address",
          "name": "to",
          "type": "address"
        },
        {
          "indexed": false,
          "internalType": "uint256",
          "name": "amount",
          "type": "uint256"
        },
        {
          "indexed": false,
          "internalType": "uint256",
          "name": "fee",
          "type": "uint256"
        }
      ],
      "name": "PaymentReceived",
      "type": "event"
    },
    {
      "anonymous": false,
      "inputs": [
        {
          "indexed": true,
          "internalType": "uint256",
          "name": "paymentId",
          "type": "uint256"
        },
        {
          "indexed": true,
          "internalType": "address",
          "name": "recipient",
          "type": "address"
        },
        {
          "indexed": false,
          "internalType": "uint256",
          "name": "amount",
          "type": "uint256"
        }
      ],
      "name": "PaymentSettled",
      "type": "event"
    },
    {
      "inputs": [
        {
          "internalType": "address",
          "name": "",
          "type": "address"
        }
      ],
      "name": "balances",
      "outputs": [
        {
          "internalType": "uint256",
          "name": "",
          "type": "uint256"
        }
      ],
      "stateMutability": "view",
      "type": "function"
    },
    {
      "inputs": [
        {
          "internalType": "address[]",
          "name": "_recipients",
          "type": "address[]"
        },
        {
          "internalType": "uint256[]",
          "name": "_amounts",
          "type": "uint256[]"
        },
        {
          "internalType": "string",
          "name": "_description",
          "type": "string"
        }
      ],
      "name": "batchPayment",
      "outputs": [],
      "stateMutability": "payable",
      "type": "function"
    },
    {
      "inputs": [],
      "name": "feeCollector",
      "outputs": [
        {
          "internalType": "address",
          "name": "",
          "type": "address"
        }
      ],
      "stateMutability": "view",
      "type": "function"
    },
    {
      "inputs": [],
      "name": "feePercentage",
      "outputs": [
        {
          "internalType": "uint256",
          "name": "",
          "type": "uint256"
        }
      ],
      "stateMutability": "view",
      "type": "function"
    },
    {
      "inputs": [
        {
          "internalType": "address",
          "name": "_user",
          "type": "address"
        }
      ],
      "name": "getBalance",
      "outputs": [
        {
          "internalType": "uint256",
          "name": "",
          "type": "uint256"
        }
      ],
      "stateMutability": "view",
      "type": "function"
    },
    {
      "inputs": [],
      "name": "nextPaymentId",
      "outputs": [
        {
          "internalType": "uint256",
          "name": "",
          "type": "uint256"
        }
      ],
      "stateMutability": "view",
      "type": "function"
    },
    {
      "inputs": [
        {
          "internalType": "uint256",
          "name": "",
          "type": "uint256"
        }
      ],
      "name": "payments",
      "outputs": [
        {
          "internalType": "address",
          "name": "from",
          "type": "address"
        },
        {
          "internalType": "address",
          "name": "to",
          "type": "address"
        },
        {
          "internalType": "uint256",
          "name": "amount",
          "type": "uint256"
        },
        {
          "internalType": "uint256",
          "name": "fee",
          "type": "uint256"
        },
        {
          "internalType": "string",
          "name": "description",
          "type": "string"
        },
        {
          "internalType": "uint256",
          "name": "timestamp",
          "type": "uint256"
        },
        {
          "internalType": "bool",
          "name": "settled",
          "type": "bool"
        }
      ],
      "stateMutability": "view",
      "type": "function"
    },
    {
      "inputs": [
        {
          "internalType": "address",
          "name": "_recipient",
          "type": "address"
        },
        {
          "internalType": "uint256",
          "name": "_amount",
          "type": "uint256"
        },
        {
          "internalType": "string",
          "name": "_description",
          "type": "string"
        }
      ],
      "name": "sendPayment",
      "outputs": [
        {
          "internalType": "uint256",
          "name": "",
          "type": "uint256"
        }
      ],
      "stateMutability": "payable",
      "type": "function"
    },
    {
      "inputs": [
        {
          "internalType": "uint256",
          "name": "_newFee",
          "type": "uint256"
        }
      ],
      "name": "setFeePercentage",
      "outputs": [],
      "stateMutability": "nonpayable",
      "type": "function"
    },
    {
      "inputs": [
        {
          "internalType": "uint256",
          "name": "_paymentId",
          "type": "uint256"
        }
      ],
      "name": "settle",
      "outputs": [],
      "stateMutability": "nonpayable",
      "type": "function"
    },
    {
      "inputs": [
        {
          "internalType": "uint256",
          "name": "_amount",
          "type": "uint256"
        }
      ],
      "name": "withdraw",
      "outputs": [],
      "stateMutability": "nonpayable",
      "type": "function"
    }
  ],
  "bytecode": "0x60806040526001600255600160035534801561001a57600080fd5b5033600460006101000a81548173ffffffffffffffffffffffffffffffffffffffff021916908373ffffffffffffffffffffffffffffffffffffffff160217905550611e1d8061006b6000396000f3fe60806040526004361061009c5760003560e01c80638df82800116100645780638df82800146101965780639b22b920146101bf578063a001ecdd146101ea578063ae06c1b714610215578063c415b95c1461023e578063f8b2cb4f146102695761009c565b80630b7e4c94146100a157806327e235e3146100bd5780632e1a7d4d146100fa57806344d6dcae1461012357806387d8178914610153575b600080fd5b6100bb60048036038101906100b69190611224565b6102a6565b005b3480156100c957600080fd5b506100e460048036038101906100df91906112cb565b610471565b6040516100f19190611307565b60405180910390f35b34801561010657600080fd5b50610121600480360381019061011c9190611322565b610489565b005b61013d6004803603810190610138919061134f565b6105ab565b60405161014a9190611307565b60405180910390f35b34801561015f57600080fd5b5061017a60048036038101906101759190611322565b610986565b60405161018d9796959493929190611467565b60405180910390f35b3480156101a257600080fd5b506101bd60048036038101906101b89190611322565b610a9d565b005b3480156101cb57600080fd5b506101d4610d52565b6040516101e19190611307565b60405180910390f35b3480156101f657600080fd5b506101ff610d58565b60405161020c9190611307565b60405180910390f35b34801561022157600080fd5b5061023c60048036038101906102379190611322565b610d5e565b005b34801561024a57600080fd5b50610253610e3c565b60405161026091906114dd565b60405180910390f35b34801561027557600080fd5b50610290600480360381019061028b91906112cb565b610e62565b60405161029d9190611307565b60405180910390f35b81518351146102ea576040517f08c379a00000000000000000000000000000000000000000000000000000000081526004016102e190611544565b60405180910390fd5b600083511161032e576040517f08c379a0000000000000000000000000000000000000000000000000000000008152600401610325906115b0565b60405180910390fd5b6000805b83518110156103765783818151811061034e5761034d6115d0565b5b602002602001015182610361919061162e565b9150808061036e90611662565b915050610332565b50803410156103ba576040517f08c379a00000000000000000000000000000000000000000000000000000000081526004016103b1906116f6565b60405180910390fd5b60005b8451811015610419576104058582815181106103dc576103db6115d0565b5b60200260200101518583815181106103f7576103f66115d0565b5b6020026020010151856105ab565b50808061041190611662565b9150506103bd565b503373ffffffffffffffffffffffffffffffffffffffff167fb970e74562b0c8f675cebbac6859159a9ec67b0eb2972ac7971d3bb05857e83e828651604051610463929190611716565b60405180910390a250505050565b60016020528060005260406000206000915090505481565b80600160003373ffffffffffffffffffffffffffffffffffffffff1673ffffffffffffffffffffffffffffffffffffffff16815260200190815260200160002054101561050b576040517f08c379a00000000000000000000000000000000000000000000000000000000081526004016105029061178b565b60405180910390fd5b80600160003373ffffffffffffffffffffffffffffffffffffffff1673ffffffffffffffffffffffffffffffffffffffff168152602001908152602001600020600082825461055a91906117ab565b925050819055503373ffffffffffffffffffffffffffffffffffffffff166108fc829081150290604051600060405180830381858888f193505050501580156105a7573d6000803e3d6000fd5b5050565b60008073ffffffffffffffffffffffffffffffffffffffff168473ffffffffffffffffffffffffffffffffffffffff160361061b576040517f08c379a00000000000000000000000000000000000000000000000000000000081526004016106129061182b565b60405180910390fd5b6000831161065e576040517f08c379a000000000000000000000000000000000000000000000000000000000815260040161065590611897565b60405180910390fd5b823410156106a1576040517f08c379a0000000000000000000000000000000000000000000000000000000008152600401610698906116f6565b60405180910390fd5b60006064600354856106b391906118b7565b6106bd9190611928565b9050600081856106cd91906117ab565b90506000600260008154809291906106e490611662565b9190505590506040518060e001604052803373ffffffffffffffffffffffffffffffffffffffff1681526020018873ffffffffffffffffffffffffffffffffffffffff1681526020018781526020018481526020018681526020014281526020016000151581525060008083815260200190815260200160002060008201518160000160006101000a81548173ffffffffffffffffffffffffffffffffffffffff021916908373ffffffffffffffffffffffffffffffffffffffff16021790555060208201518160010160006101000a81548173ffffffffffffffffffffffffffffffffffffffff021916908373ffffffffffffffffffffffffffffffffffffffff160217905550604082015181600201556060820151816003015560808201518160040190816108159190611b65565b5060a0820151816005015560c08201518160060160006101000a81548160ff02191690831515021790555090505081600160008973ffffffffffffffffffffffffffffffffffffffff1673ffffffffffffffffffffffffffffffffffffffff1681526020019081526020016000206000828254610892919061162e565b925050819055508260016000600460009054906101000a900473ffffffffffffffffffffffffffffffffffffffff1673ffffffffffffffffffffffffffffffffffffffff1673ffffffffffffffffffffffffffffffffffffffff168152602001908152602001600020600082825461090a919061162e565b925050819055508673ffffffffffffffffffffffffffffffffffffffff163373ffffffffffffffffffffffffffffffffffffffff16827f97a560c1f75713f086cb846ee29d9284d3ce238c5913d3fb5d65dc4d165122838987604051610971929190611716565b60405180910390a48093505050509392505050565b60006020528060005260406000206000915090508060000160009054906101000a900473ffffffffffffffffffffffffffffffffffffffff16908060010160009054906101000a900473ffffffffffffffffffffffffffffffffffffffff1690806002015490806003015490806004018054610a0190611988565b80601f0160208091040260200160405190810160405280929190818152602001828054610a2d90611988565b8015610a7a5780601f10610a4f57610100808354040283529160200191610a7a565b820191906000526020600020905b815481529060010190602001808311610a5d57829003601f168201915b5050505050908060050154908060060160009054906101000a900460ff16905087565b600080600083815260200190815260200160002090508060010160009054906101000a900473ffffffffffffffffffffffffffffffffffffffff1673ffffffffffffffffffffffffffffffffffffffff163373ffffffffffffffffffffffffffffffffffffffff1614610b45576040517f08c379a0000000000000000000000000000000000000000000000000000000008152600401610b3c90611c83565b60405180910390fd5b8060060160009054906101000a900460ff1615610b97576040517f08c379a0000000000000000000000000000000000000000000000000000000008152600401610b8e90611cef565b60405180910390fd5b80600301548160020154610bab91906117ab565b600160003373ffffffffffffffffffffffffffffffffffffffff1673ffffffffffffffffffffffffffffffffffffffff168152602001908152602001600020541015610c2c576040517f08c379a0000000000000000000000000000000000000000000000000000000008152600401610c239061178b565b60405180910390fd5b600081600301548260020154610c4291906117ab565b905080600160003373ffffffffffffffffffffffffffffffffffffffff1673ffffffffffffffffffffffffffffffffffffffff1681526020019081526020016000206000828254610c9391906117ab565b9250508190555060018260060160006101000a81548160ff0219169083151502179055503373ffffffffffffffffffffffffffffffffffffffff166108fc829081150290604051600060405180830381858888f19350505050158015610cfd573d6000803e3d6000fd5b503373ffffffffffffffffffffffffffffffffffffffff16837ffc8b977f1c80a8e9ce98d4ee92ece16b551343d056ff17b6ab738516c39fc44083604051610d459190611307565b60405180910390a3505050565b60025481565b60035481565b600460009054906101000a900473ffffffffffffffffffffffffffffffffffffffff1673ffffffffffffffffffffffffffffffffffffffff163373ffffffffffffffffffffffffffffffffffffffff1614610dee576040517f08c379a0000000000000000000000000000000000000000000000000000000008152600401610de590611d5b565b60405180910390fd5b600a811115610e32576040517f08c379a0000000000000000000000000000000000000000000000000000000008152600401610e2990611dc7565b60405180910390fd5b8060038190555050565b600460009054906101000a900473ffffffffffffffffffffffffffffffffffffffff1681565b6000600160008373ffffffffffffffffffffffffffffffffffffffff1673ffffffffffffffffffffffffffffffffffffffff168152602001908152602001600020549050919050565b6000604051905090565b600080fd5b600080fd5b600080fd5b6000601f19601f8301169050919050565b7f4e487b7100000000000000000000000000000000000000000000000000000000600052604160045260246000fd5b610f0d82610ec4565b810181811067ffffffffffffffff82111715610f2c57610f2b610ed5565b5b80604052505050565b6000610f3f610eab565b9050610f4b8282610f04565b919050565b600067ffffffffffffffff821115610f6b57610f6a610ed5565b5b602082029050602081019050919050565b600080fd5b600073ffffffffffffffffffffffffffffffffffffffff82169050919050565b6000610fac82610f81565b9050919050565b610fbc81610fa1565b8114610fc757600080fd5b50565b600081359050610fd981610fb3565b92915050565b6000610ff2610fed84610f50565b610f35565b9050808382526020820190506020840283018581111561101557611014610f7c565b5b835b8181101561103e578061102a8882610fca565b845260208401935050602081019050611017565b5050509392505050565b600082601f83011261105d5761105c610ebf565b5b813561106d848260208601610fdf565b91505092915050565b600067ffffffffffffffff82111561109157611090610ed5565b5b602082029050602081019050919050565b6000819050919050565b6110b5816110a2565b81146110c057600080fd5b50565b6000813590506110d2816110ac565b92915050565b60006110eb6110e684611076565b610f35565b9050808382526020820190506020840283018581111561110e5761110d610f7c565b5b835b81811015611137578061112388826110c3565b845260208401935050602081019050611110565b5050509392505050565b600082601f83011261115657611155610ebf565b5b81356111668482602086016110d8565b91505092915050565b600080fd5b600067ffffffffffffffff82111561118f5761118e610ed5565b5b61119882610ec4565b9050602081019050919050565b82818337600083830152505050565b60006111c76111c284611174565b610f35565b9050828152602081018484840111156111e3576111e261116f565b5b6111ee8482856111a5565b509392505050565b600082601f83011261120b5761120a610ebf565b5b813561121b8482602086016111b4565b91505092915050565b60008060006060848603121561123d5761123c610eb5565b5b600084013567ffffffffffffffff81111561125b5761125a610eba565b5b61126786828701611048565b935050602084013567ffffffffffffffff81111561128857611287610eba565b5b61129486828701611141565b925050604084013567ffffffffffffffff8111156112b5576112b4610eba565b5b6112c1868287016111f6565b9150509250925092565b6000602082840312156112e1576112e0610eb5565b5b60006112ef84828501610fca565b91505092915050565b611301816110a2565b82525050565b600060208201905061131c60008301846112f8565b92915050565b60006020828403121561133857611337610eb5565b5b6000611346848285016110c3565b91505092915050565b60008060006060848603121561136857611367610eb5565b5b600061137686828701610fca565b9350506020611387868287016110c3565b925050604084013567ffffffffffffffff8111156113a8576113a7610eba565b5b6113b4868287016111f6565b9150509250925092565b6113c781610fa1565b82525050565b600081519050919050565b600082825260208201905092915050565b60005b838110156114075780820151818401526020810190506113ec565b60008484015250505050565b600061141e826113cd565b61142881856113d8565b93506114388185602086016113e9565b61144181610ec4565b840191505092915050565b60008115159050919050565b6114618161144c565b82525050565b600060e08201905061147c600083018a6113be565b61148960208301896113be565b61149660408301886112f8565b6114a360608301876112f8565b81810360808301526114b58186611413565b90506114c460a08301856112f8565b6114d160c0830184611458565b98975050505050505050565b60006020820190506114f260008301846113be565b92915050565b7f417272617973206c656e677468206d69736d6174636800000000000000000000600082015250565b600061152e6016836113d8565b9150611539826114f8565b602082019050919050565b6000602082019050818103600083015261155d81611521565b9050919050565b7f4e6f20726563697069656e747300000000000000000000000000000000000000600082015250565b600061159a600d836113d8565b91506115a582611564565b602082019050919050565b600060208201905081810360008301526115c98161158d565b9050919050565b7f4e487b7100000000000000000000000000000000000000000000000000000000600052603260045260246000fd5b7f4e487b7100000000000000000000000000000000000000000000000000000000600052601160045260246000fd5b6000611639826110a2565b9150611644836110a2565b925082820190508082111561165c5761165b6115ff565b5b92915050565b600061166d826110a2565b91507fffffffffffffffffffffffffffffffffffffffffffffffffffffffffffffffff820361169f5761169e6115ff565b5b600182019050919050565b7f496e73756666696369656e74207061796d656e74000000000000000000000000600082015250565b60006116e06014836113d8565b91506116eb826116aa565b602082019050919050565b6000602082019050818103600083015261170f816116d3565b9050919050565b600060408201905061172b60008301856112f8565b61173860208301846112f8565b9392505050565b7f496e73756666696369656e742062616c616e6365000000000000000000000000600082015250565b60006117756014836113d8565b91506117808261173f565b602082019050919050565b600060208201905081810360008301526117a481611768565b9050919050565b60006117b6826110a2565b91506117c1836110a2565b92508282039050818111156117d9576117d86115ff565b5b92915050565b7f496e76616c696420726563697069656e74000000000000000000000000000000600082015250565b60006118156011836113d8565b9150611820826117df565b602082019050919050565b6000602082019050818103600083015261184481611808565b9050919050565b7f416d6f756e74206d757374206265203e20300000000000000000000000000000600082015250565b60006118816012836113d8565b915061188c8261184b565b602082019050919050565b600060208201905081810360008301526118b081611874565b9050919050565b60006118c2826110a2565b91506118cd836110a2565b92508282026118db816110a2565b915082820484148315176118f2576118f16115ff565b5b5092915050565b7f4e487b7100000000000000000000000000000000000000000000000000000000600052601260045260246000fd5b6000611933826110a2565b915061193e836110a2565b92508261194e5761194d6118f9565b5b828204905092915050565b7f4e487b7100000000000000000000000000000000000000000000000000000000600052602260045260246000fd5b600060028204905060018216806119a057607f821691505b6020821081036119b3576119b2611959565b5b50919050565b60008190508160005260206000209050919050565b60006020601f8301049050919050565b600082821b905092915050565b600060088302611a1b7fffffffffffffffffffffffffffffffffffffffffffffffffffffffffffffffff826119de565b611a2586836119de565b95508019841693508086168417925050509392505050565b6000819050919050565b6000611a62611a5d611a58846110a2565b611a3d565b6110a2565b9050919050565b6000819050919050565b611a7c83611a47565b611a90611a8882611a69565b8484546119eb565b825550505050565b600090565b611aa5611a98565b611ab0818484611a73565b505050565b5b81811015611ad457611ac9600082611a9d565b600181019050611ab6565b5050565b601f821115611b1957611aea816119b9565b611af3846119ce565b81016020851015611b02578190505b611b16611b0e856119ce565b830182611ab5565b50505b505050565b600082821c905092915050565b6000611b3c60001984600802611b1e565b1980831691505092915050565b6000611b558383611b2b565b9150826002028217905092915050565b611b6e826113cd565b67ffffffffffffffff811115611b8757611b86610ed5565b5b611b918254611988565b611b9c828285611ad8565b600060209050601f831160018114611bcf5760008415611bbd578287015190505b611bc78582611b49565b865550611c2f565b601f198416611bdd866119b9565b60005b82811015611c0557848901518255600182019150602085019450602081019050611be0565b86831015611c225784890151611c1e601f891682611b2b565b8355505b6001600288020188555050505b505050505050565b7f4f6e6c7920726563697069656e742063616e20736574746c6500000000000000600082015250565b6000611c6d6019836113d8565b9150611c7882611c37565b602082019050919050565b60006020820190508181036000830152611c9c81611c60565b9050919050565b7f416c726561647920736574746c65640000000000000000000000000000000000600082015250565b6000611cd9600f836113d8565b9150611ce482611ca3565b602082019050919050565b60006020820190508181036000830152611d0881611ccc565b9050919050565b7f4f6e6c79206f776e657200000000000000000000000000000000000000000000600082015250565b6000611d45600a836113d8565b9150611d5082611d0f565b602082019050919050565b60006020820190508181036000830152611d7481611d38565b9050919050565b7f46656520746f6f20686967680000000000000000000000000000000000000000600082015250565b6000611db1600c836113d8565b9150611dbc82611d7b565b602082019050919050565b60006020820190508181036000830152611de081611da4565b905091905056fea26469706673582212203da489a7289acb05dd207c38a050c4b3615d6a2ce7dea3ee5ee2ff029a17d97564736f6c63430008140033",
  "linkReferences": {},
  "deployedLinkReferences": {}
}